:100000000C94B1070C94D9070C94D9070C94D90718
:100010000C94D9070C94D9070C94D9070C94D907E0
:100020000C94D9070C94D9070C945E290C943827AA
:100030000C94D9070C94D9070C94D9070C94D907C0
:100040000C94D9070C94D9070C94D9070C94D907B0
:100050000C94D9070C94D9070C94D9070C94CB298C
:100060000C94D9070C94D9070C94D9070C94D90790
:100070000C94D9070C94D9070C94D9070C94D90780
:100080000C94D9070C94D9070C94D9070C94D90770
:100090000C94D9070C94D9070C94D9070C94D90760
:1000A0000C94D9070C94D9070C94D90700000000D0
:1000B000000000C0F0FCFFFCF0C0000000000000E9
:1000C00000000000C0F0FCFFFFFFFFFFFFFFFFFF8D
:1000D000FCF0C0000000303C3F3F3F3F3F3F3F3F10
:1000E0003F3F3F3F3F3F3F3F3F3C3000000000006D
:1000F0000000C0F0FCFFFCF0C000000000000000A9
:10010000000000C0300C0301010001030303030CD5
:1001100030C0000000300C030000000000000000B0
:1001200000000000000000030C3000000000000090
:10013000000000000000000000000000C0F0FCFF14
:10014000FCF0C00000000000000000000000000003
:10015000000000000000000000000000000000009F
:10016000000000C0F0FCFFFFFFFFFFFFFFFFFFFCF0
:10017000F0C00000000000000000000000000000CF
:1001800000000000000000000000C0F0FCFFFFFFC6
:10019000FFFFFFFFFFFFFFFFFFFFFFFFFFFFFCF081
:1001A000C00000000000000000000000000000008F
:1001B00000C0F0FCFFFFFFFFFFFFFFFFFFFFFFFF9F
:1001C000FFFFFFFFFFFFFFFFFFFFFFFFFFFCF0C090
:1001D0000000000000000000C0F0FCFFFFFFFFFF78
:1001E000FFFFFFFFFFFFFFFFFFFFFFFFFFFFFFFF1F
:1001F000FFFFFFFFFFFFFFFFFFFFFFFFFCF0C0005F
:10020000000C0F0F0F0F0F0F0F0F0F0F0F0F0F0F10
:100210000F0F0F0F0F0F0F0F0F0F0F0F0F0F0F0FEE
:100220000F0F0F0F0F0F0F0F0F0F0F0C000000001D
:100230000000000000000000000000000000C0F00E
:10024000FCFFFCF0C0000000000000000000000007
:10025000000000000000000000000000000000009E
:100260000000000000C0300C070707030103010075
:10027000030C30C00000000000000000000000007F
:10028000000000000000000000000000C0300C036F
:10029000000000000000000000000000000000035B
:1002A0000C30C00000000000000000000000000052
:1002B000000000C0300C030000000000000000003F
:1002C0000000000000000000000000000000030C1F
:1002D00030C00000000000000000C0300C0300002F
:1002E000000000000000000000000000000000000E
:1002F00000000000000000000000000000030C30BF
:10030000C000000C0300000000000000000000001E
:1003100000000000000000000000000000000000DD
:10032000000000000000000000000000030C0F0FA0
:100330000F0F080400303C3C3E3C0F0F0F0F000035
:100340000020383C3C38000201000102000000039C
:1003500000000F0F0F0F0C0030303C3E3E3F3F219E
:100360002D2D213F808080808080808080808080D3
:10037000808080808080808080808080808080807D
:1003800080C0C0C0C0C0E0E0E0E0808080808080AD
:10039000808080808080808080808080C0C0C0C05D
:1003A000C0C0C0C0C0E0E0E0E0E0E0E0E0E0F0F0CD
:1003B000F0F0F0F0F0F0F08080808080808080802D
:1003C000808080808080808080808080808080802D
:1003D000808080808080808080808080808080801D
:1003E000808080808080808080808080808080800D
:1003F000808080808080808080808080E0E0E0E07D
:100400008080E0E0E0E0C0C08080808080808080EC
:1004100080808080808080808080808080808080DC
:100420008000004041010141414141010101018140
:1004300081818080808080808080808080808080BA
:1004400080808080C0C0C0C08080E0E0E0E080802C
:10045000F0F0F0F0F08080FCFCFCFC8080F0F0F02C
:10046000F0F08080E0E0E0E08080C0C0C0C080802C
:10047000808080808080808080808080808080807C
:100480008080808080808080808080E38080808009
:1004900080808080808080C3808080808080808019
:1004A0008080C38080808080808080808080E380A6
:1004B000808080808080808080808080808080803C
:1004C000808080808080C0C0C0C0C0E0E0F0F0F0DC
:1004D000F0F0F08080808183878F9F9F8080808074
:1004E00080808080808080808080C0C0C0C0C0C08C
:1004F00080808080808080808080808080808080FC
:10050000E08080808080808080808080808080808B
:10051000808080808080808080808080C0C0C0C0DB
:10052000C0C0C0C0C0E0E0E0E0E0E0E0E0E0F0F04B
:10053000F0F0F0F0F0F0F0808080808080808080AB
:100540008080808080808080808080E0E0E0E0E0CB
:10055000E0F8F8F8F8F8F8FEFEFEFEFEFE80808077
:1005600080E1E1E180808080808080808080808068
:1005700080C0C0C0C0C0E0E0E0E0E0F0F0F0F0809B
:100580008080808888888C8C8C80808080C3C3C366
:10059000C380808080808080808080808080808018
:1005A000808080808080808080808080808080804B
:1005B000808080808080808080808080808080803B
:1005C000808080808080808080808080808080802B
:1005D000808080808080808080808080808080801B
:1005E00080FF38445241211EB409B1095D09580900
:1005F000940B10096D0B86084E0D310810080E0380
:100600005B00D007380A9A0C00300C030C301E1126
:100610001D111C11DB10DA10D510D4108D108C10A8
:100620008710861080107F107A1079107310721066
:100630006D106C10C00DB50D021001109E0F9D0FB6
:10064000990F980F970F780F770F760F750F710F1F
:10065000700F340F330F2E0F2D0F250F240F230F84
:100660001F0F1E0F1D0F0080D8FCFEFEFC7E7FFFBB
:10067000FFFEFCF0E00083C783FFFF00000000FFE7
:10068000000101000001070107070000000007004A
:100690000000000080D8FCFEFEFC7E7FFFFFFEFC19
:1006A000F0E00083C783FFFF80808080FF80E1C18E
:1006B0008000010701070700070303070307010183
:1006C000F2105F10DE0F3A0D3E0F003C7C7E7D3C49
:1006D0002D072A07480E3F0E8B067E06F508110BE4
:1006E0000D065B08AA05F907EB0C660A6105280AE6
:1006F0000000C0F0F8FCFC7C7CFCF8F0C00000803E
:10070000038303FFFF00000000FF03030300020751
:10071000020007070000000007000000000000C002
:10072000F0F8FCFC7C7CFCF8F0C000008003830344
:10073000FFFF20F0B020FF532B53200207020007D9
:1007400007000707010700000000081157101910E3
:10075000B30A8700290F1C224949221CD3093B0CEC
:10076000380CB10B250E1E0ED008C408B908AD0810
:10077000EE0AEB0AB80A1D0D140D110D0000000061
:100780000080F86868800000000000F020F020FF82
:10079000FF00000000FF20F020F00702070207071B
:1007A000000000000702070207000000000080F8B8
:1007B0006868800000000000F020F020FF2FF0208B
:1007C000F020FF20F020F0070207020702070207CF
:1007D000020702070207FD100604C50F2C080403D8
:1007E000090412010002EF0201404123868000014A
:1007F0000102030141726475696E6F204C4C430025
:1008000055534220494F20426F61726400080B002B
:100810000202020100090400000102020000052496
:10082000001001052401010104240206052406002C
:10083000010705810310004009040100020A0000BD
:10084000000705020240000007058302400000D5B2
:10085000F08D14A1C881CFD9F1AF200080E0F8FE5F
:100860009F8E5E3C1808E6E0707000F0F0F00080AB
:10087000E08070F080F0F080E0F838C0F0B06060A8
:10088000F4E604E0E0C00080C04000C0FCFC617100
:100890007BF7F3FF7F1F03010F1F3838001F1F1F57
:1008A000063F3F3F001F1F03031F1F011E1F1F198D
:1008B0001B1807031C1F03073E3F1F00307337013F
:1008C0000000000000010000000000000000000027
:1008D0000000000000000000000000000000000018
:1008E0000000000000000000000000000000000008
:1008F00000000CFEFFFC181CBCF8F83C1CBCFCF80B
:100900001000E0E0E0C00030F0F0E08000E0E00047
:10091000F0F0E0C0F0F8F800FFFFFF8000FFFFFFFD
:100920000000FFFFFF383F1F1B1B1F3F3C3F1F0303
:10093000071E3F3F001F1F010307070700010301B8
:100940000100030703030003070301000000000088
:100950000000000000000000000000000000000097
:10096000000C1EFEFCFC8C9FDEFCBC1800008CFC06
:10097000F0FCCC0000F0F07060C0C00000003FFF51
:10098000FFE1930F0F07121E3F0F0D0F0F3F3C7F2C
:100990007F070F3F39000000000103030100000042
:1009A0000000000000000000000000000000000047
:1009B000000000003E5B4F5B3E3E6B4F6B3E1C3EBB
:1009C0007C3E1C183C7E3C181C577D571C1C5E7FCF
:1009D0005E1C00183C1800FFE7C3E7FF001824184E
:1009E00000FFE7DBE7FF30483A060E262979292683
:1009F000407F050507407F05253F5A3CE73C5A7F6D
:100A00003E1C1C08081C1C3E7F14227F22145F5FC2
:100A1000005F5F06097F017F006689956A606060FC
:100A2000606094A2FFA29408047E040810207E2037
:100A30001008082A1C08081C2A08081E101010108C
:100A40000C1E0C1E0C30383E3830060E3E0E0600D2
:100A50000000000000005F00000007000700147F96
:100A6000147F14242A7F2A122313086462364956FD
:100A700020500008070300001C2241000041221CF6
:100A8000002A1C7F1C2A08083E08080080703000DD
:100A90000808080808000060600020100804023EF2
:100AA0005149453E00427F40007249494946214133
:100AB000494D331814127F1027454545393C4A49A2
:100AC00049314121110907364949493646494929E1
:100AD0001E000014000000403400000008142241F1
:100AE0001414141414004122140802015909063E7A
:100AF000415D594E7C1211127C7F494949363E4175
:100B00004141227F4141413E7F494949417F090995
:100B100009013E414151737F0808087F00417F4130
:100B2000002040413F017F081422417F4040404067
:100B30007F021C027F7F0408107F3E4141413E7FBF
:100B4000090909063E4151215E7F091929462649B6
:100B500049493203017F01033F4040403F1F20408D
:100B6000201F3F4038403F63140814630304780497
:100B7000036159494D43007F41414102040810205F
:100B8000004141417F0402010204404040404000D6
:100B90000307080020545478407F284444383844E0
:100BA000444428384444287F385454541800087E5C
:100BB000090218A4A49C787F0804047800447D40AE
:100BC000002040403D007F1028440000417F40004D
:100BD0007C047804787C080404783844444438FC65
:100BE0001824241818242418FC7C080404084854E9
:100BF00054542404043F44243C4040207C1C2040A6
:100C0000201C3C4030403C44281028444C9090909C
:100C10007C4464544C4400083641000000770000D6
:100C2000004136080002010204023C2623263C1E35
:100C3000A1A161123A4040207A38545455592155A7
:100C400055794121545478412155547840205455C8
:100C500079400C1E52721239555555593954545415
:100C60005939555454580000457C410002457D4295
:100C70000001457C40F0292429F0F0282528F07C4B
:100C8000545545002054547C547C0A097F4932490C
:100C90004949323248484832324A4848303A41415C
:100CA000217A3A42402078009DA0A07D39444444F6
:100CB000393D4040403D3C24FF2424487E49436662
:100CC0002B2FFC2F2BFF0929F620C0887E0903203B
:100CD000545479410000447D413048484A323840FC
:100CE00040227A007A0A0A727D0D19317D2629295F
:100CF0002F28262929292630484D40203808080861
:100D00000808080808382F10C8ACBA2F102834FA81
:100D100000007B000008142A142222142A140895CB
:100D200000220095AA005500AAAA55AA55AA0000BB
:100D300000FF00101010FF00141414FF001010FF2B
:100D400000FF1010F010F0141414FC001414F7003D
:100D5000FF0000FF00FF1414F404FC141417101F0C
:100D600010101F101F1414141F00101010F000009A
:100D700000001F101010101F10101010F0100000B5
:100D800000FF101010101010101010FF10000000C5
:100D9000FF140000FF00FF00001F10170000FC04FC
:100DA000F414141710171414F404F40000FF00F7DF
:100DB00014141414141414F700F714141417141042
:100DC000101F101F141414F4141010F010F0000071
:100DD0001F101F0000001F14000000FC140000F092
:100DE00010F01010FF10FF141414FF141010101F37
:100DF00000000000F010FFFFFFFFFFF0F0F0F0F048
:100E0000FFFFFF0000000000FFFF0F0F0F0F0F3864
:100E1000444438447C2A2A3E147E02020606027E9E
:100E2000027E0263554941633844443C04407E20BD
:100E30001E2006027E020299A5E7A5991C2A492ACE
:100E40001C4C7201724C304A4D4D3030487848305D
:100E5000BC625A463D3E494949007E0101017E2A55
:100E60002A2A2A2A44445F444440514A4440404488
:100E70004A51400000FF0103E080FF000008086BBA
:100E80006B083612362436060F090F0600001818B4
:100E90000000001010003040FF0101001F01011E82
:100EA00000191D1712003C3C3C3C0000000000F003
:100EB000F89C8E8783878E9CF8F00000FEFF03036A
:100EC000030303070EFCF80000FEFF030303030304
:100ED000070EFCF80000FFFF00000000000000FF0C
:100EE000FF0000FEFF8383838383C7EE7C3800000E
:100EF000F8FC0E07030303070EFCF800003F7FE039
:100F0000C08080C0E07F3FFFFF01010101010101BE
:100F1000FFFF0000FFFF0C0C0C0C1C3E77E3C10030
:100F2000007FFFC0C0C0C0C0E0703F1F00001F3F77
:100F300070E0C0C0C0E0703F1F00007FFFC1C1C1B2
:100F4000C1C1E3773E1C00001F3F70E0C0C0C0E09D
:100F5000703F1F000000000001FFFF0100000000C3
:100F6000B42F11241FBECFEFDAE0DEBFCDBF28E0E3
:100F7000A0E5B1E001C01D92A03EB207E1F711E08B
:100F8000A0E0B1E0ECEFF0E602C005900D92A035D4
:100F9000B107D9F717E0C1EBD7E004C02197FE01F4
:100FA0000E941D30C03BD107C9F70E94132A0C9440
:100FB0007C300C94000090E080E008950895AF929A
:100FC000BF92CF92DF92EF92FF920F931F93CF9336
:100FD000DF939C01409680359105B0F5A90137FF5C
:100FE00004C044275527421B530B47705527C9019E
:100FF00037FD079663E0959587956A95E1F737FF8A
:1010000007C0019728E030E0B901641B750BAB0104
:10101000EC01D695DC2FCC27D795C79570E060E022
:1010200028E030E06901C41AD50A8F3FEFEF9E0730
:10103000B4F40196685A7F4FC058DF4F603B71058A
:1010400019F08830910589F7DF91CF911F910F91A9
:10105000FF90EF90DF90CF90BF90AF9008959B01ED
:101060002155314F59018E010C581A4FDE01A05203
:10107000BB4FF12CE12C8F3F980779F1F5012491BA
:10108000042E01C0220F0A94EAF754963C9154971B
:10109000232B54962C9354974115510581F087309A
:1010A000910569F0F501249130E00C2C02C03595D2
:1010B00027950A94E2F7F8013081232B2083FFEF74
:1010C000EF1AFF0A2FEFA21AB20A0F5F1F4F1196F5
:1010D00038E5E316F10479F6ACCF4115510579F303
:1010E000E1CF08959C01CB0120383105B8F460347C
:1010F0007105A0F450E131E081FD34E080FD330F53
:1011000082FD3295887F589FD0011124A20FA052F2
:10111000BB4F8C9140FF03C0832B8C930895309577
:101120008323FBCF2F923F924F925F926F927F92D9
:101130008F929F92AF92BF92CF92DF92EF92FF92E7
:101140000F931F93CF93DF93CDB7DEB728970FB6DA
:10115000F894DEBF0FBECDBF8F8398876A3069F5E4
:10116000AF81B88555968C91B8E08B9F9001112482
:10117000EF81F88581899289820F931F928B818BF1
:10118000108A178681E090E028960FB6F894DEBFAB
:101190000FBECDBFDF91CF911F910F91FF90EF90C8
:1011A000DF90CF90BF90AF909F908F907F906F9087
:1011B0005F904F903F902F9008956D3019F3AF815D
:1011C000B8851F960D911C910038110574F1EF81BF
:1011D000F8852589422F50E087859089F6E02F9F7A
:1011E000800D911D1124AF81B88550969C938E93EC
:1011F0001F9756962C91222329F26AEF64039001DF
:10120000659F300D112420583F4F281739070CF0E7
:10121000B9CFAF81B885ED91FC9111970190F08124
:10122000E02D6AE0CD010995ADCFEF81F8856188A9
:101230007288F0E46F16710454F6AF81B885559644
:101240002C9025E0C801229E800D911D11241816B6
:1012500019060CF0BCCF422C512CB8E02B9EC001DB
:101260001124860D971D181619060CF0B0CFEF81CA
:10127000F885F489FB83AF81B8855396BC91BC8314
:10128000629FB0011124FB01E155F64FFE83ED830F
:10129000F12CE12CED81FE81EE0DFF1D3490F5E087
:1012A000EF1201C0312C530138E03A8330FC1CC0EE
:1012B0008B818983A981A11104C0BB81EC81BE17F8
:1012C000D1F068018C2D801B8215A8F44501882D72
:1012D0008A19821560F44981B401C6010E9472081E
:1012E000FFEF8F1A9F0AF3CF9C819983E3CF3FEFE3
:1012F000C31AD30AE7CF36948A8181508A83A40C1B
:10130000B51C8111D3CF9FEFE91AF90A040D151D01
:10131000A6E0EA16F10409F0BDCF59CF8FB1809550
:10132000807F669B88601C9B8460089580916B041D
:1013300081110DC082E08093670484E0809368048B
:1013400010926A041092690481E080936B0487E62E
:1013500094E00895615030F0FC018091F100819398
:10136000CF01F8CF289884E68093660408954091D1
:101370006404509165042091620430916304421723
:101380005307B4F49091E8009570E1F39091E80070
:1013900092FD19C08093F1008091640490916504DE
:1013A00001968F739927892B19F48EEF8093E800AB
:1013B00080916404909165040196909365048093F4
:1013C000640481E0089580E00895EF92FF920F9306
:1013D0001F93CF93DF937C01162F042F81E0860F9C
:1013E000880F0E94B70983E00E94B709E701E10E68
:1013F000F11CCE15DF05B9F007FF13C0FE01849183
:101400000E94B709182F80E00E94B7098123219616
:101410008111EFCFDF91CF911F910F91FF90EF904E
:1014200008958881EDCF81E0F5CFCF93DF9300D091
:1014300000D0CDB7DEB73FB7F89480915C049091AF
:101440005D04A0915E04B0915F0426B5A89B05C021
:101450002F3F19F00196A11DB11D3FBFBA2FA92F33
:10146000982F8827820F911DA11DB11D9C01AD01F0
:1014700062E0220F331F441F551F6A95D1F7CA013E
:10148000B9010F900F900F900F90DF91CF910895B9
:101490008F929F92AF92BF92CF92DF92EF92FF9284
:1014A000CF93DF9300D000D0CDB7DEB76B017C01C6
:1014B0000E94150A4B015C01C114D104E104F1043E
:1014C000F1F00E94150ADC01CB0188199909AA09DB
:1014D000BB09883E9340A105B10570F381E0C81AAD
:1014E000D108E108F10828EE820E23E0921EA11C2B
:1014F000B11CC114D104E104F10419F7DDCF0F9040
:101500000F900F900F90DF91CF91FF90EF90DF90B1
:10151000CF90BF90AF909F908F900895CF93DF931F
:1015200000D000D0CDB7DEB79C0150E040E0298369
:101530003A834B835C83CA01B9010F900F900F90DF
:101540000F90DF91CF910C94480AFC01848595851A
:1015500097FD0BC09FB7F89482E08093E9008091DB
:10156000F2009FBF90E0019608959FB7F89482E043
:101570008093E9008091F2009FBF90E0089583E09E
:101580008093E9008091F200882319F08AE3809328
:10159000E8000895CF93DF930F92CDB7DEB7DC015B
:1015A0006983ED91FC910280F381E02D41E050E0F0
:1015B000BE016F5F7F4F09950F90DF91CF91089526
:1015C000CF92DF92EF92FF920F931F93CF93DF930F
:1015D0007C016A0110E000E00C151D0581F0EB01B3
:1015E000D701ED91FC910190F081E02D6991C70147
:1015F0000995892B21F00F5F1F4FBE01EDCFC80168
:10160000DF91CF911F910F91FF90EF90DF90CF90DE
:1016100008956F927F928F929F92AF92BF92CF92D6
:10162000DF92EF92FF920F931F93CF93DF93DC0132
:10163000FB01CA01E9012E2D6C2D402F50E07A01EB
:10164000EA0EFB1E1E141F040CF075C0A038B10575
:101650000CF071C06F01C20ED11C1C141D040CF0E3
:101660006AC0E034F1050CF066C0009709F463C06D
:101670003E2F37706F01F7FF03C077E0C70ED11C14
:1016800013E0D594C7941A95E1F71C2DF7FF04C019
:10169000332311F01FEF1C0DEE27FF27EA1BFB0B76
:1016A000B7FD02C0F0E0E0E070E8E716F1040CF4EA
:1016B00051C070E8F72EFA1AFE1A912E97FC9194F9
:1016C0009A941F3F0CF0912CEE24E394722F7770C4
:1016D00009F4E12C269526952695E20ECE2CD12CE8
:1016E000C10ED11C17FDDA9429E0C216D1041CF0FA
:1016F00028E0E22EE11A8E2C8918292D210F70E89E
:10170000270350011124AA0DBB1DAE0FBF1F099D59
:10171000E00DF11D11248E0F9F1FA32E032E000C30
:10172000BB08633009F4CEC0B8F4613009F487C057
:10173000623009F43DC0DF91CF911F910F91FF906E
:10174000EF90DF90CF90BF90AF909F908F907F9061
:101750006F900895F02EB0CFE10E6A3F61F72E151D
:1017600051F3ED01C052DB4F6C016C2D681B6F15FE
:1017700008F05FC0F601649170E00A2C02C0660FA9
:10178000771F0A94E2F727FD03C00881062B088320
:10179000332349F027303CF48E0100581F4FF801E5
:1017A0006081672B6083FFEFCF1ADF0A2196DDCFC0
:1017B0006FEF70E0032E02C0660F771F0A94E2F706
:1017C00060957095972EE10E2E1509F4B4CF8D011A
:1017D00000521B4FFC01CE2FC81BCF1520F5C49122
:1017E000D0E03E010A2C02C0660C771C0A94E2F796
:1017F00027FD05C0E801D880D622D628D882332319
:1018000071F0273064F46801D0E8CD0ED11CE601F8
:101810008880C82DC9218C2E8728E60188823196C0
:101820000F5F1F4FD8CF2F5F840F951FA058BF4F5A
:10183000CBCF2F5F840F951FA058BF4F90CFBE0115
:101840006E0F7F1FE10E2E1509F475CFED01C0520A
:10185000DB4F10E000E00F1568F5FB01E00FF11F12
:10186000C490D12C0A2C02C0CC0CDD1C0A94E2F7E7
:10187000C094D094FC01E00FF11F8490912C0A2CAD
:1018800002C0880C991C0A94E2F727FD04C0E88185
:10189000EC21E829E883332349F027303CF4FE01AA
:1018A000E058FF4FC080DC20D928D0820F5F1F4F47
:1018B0002196D1CF2F5F840F951F640F751FA058FD
:1018C000BF4FC1CFCF2DD0E0E80FF91FA052BB4FC3
:1018D00000E810E00C1B1D0B4C1B5D0B440F551F4B
:1018E00081E090E06C01032E01C0CC0C0A94EAF771
:1018F000782D6F2D732ECF93DF93ED01EF96EF963A
:1019000022968590A590772059F08C9C4001AC9C44
:10191000500127302CF4E880B094EB20E928E992BC
:1019200022233AF0EC90A094EA20E828ED920C945F
:101930009A0C11966A9529F77A9551F06F2D239597
:101940001124E40FF11DA00FB11DC00FD11DD9CF7F
:10195000DF91CF911124EFCE009739F03CF4079638
:1019600024E0959587952A95E1F708950896F8CF94
:101970009C01283E83E0380748F42436310570F492
:101980002A30310570F481E090E00895285E3340FC
:101990002832334248F085E090E0089583E090E0FB
:1019A000089582E090E0089584E090E00895CF9259
:1019B000DF92EF92FF920F931F93CF93DF936C010F
:1019C0007B01C091BB04D091BC0404E610E0CE01C1
:1019D000B8010E94F52F37E0389FF001399FF00DD4
:1019E0001124E056FE4F108284E0CC0CDD1C8A9559
:1019F000E1F7D282C18294E0EE0CFF1C9A95E1F7E8
:101A0000F482E38245832683CE0101969093BC0441
:101A10008093BB042091BD043091BE04B8010E94A4
:101A2000F52FFC01C901B8010E94F52FE817F9074D
:101A300031F42F5F3F4F3093BE042093BD04DF91FC
:101A4000CF911F910F91FF90EF90DF90CF9008956D
:101A50002FB7F89483E08093E9009091E800892FF4
:101A6000807295FF04C09091F20080E4891B2FBF23
:101A700008950E94280D90E008958F929F92AF9252
:101A8000BF92CF92DF92EF92FF920F931F93CF936B
:101A9000DF937C018B01EA0180910B01882309F41B
:101AA00065C080917604882309F460C08091740435
:101AB00080FF05C08091E00082608093E0006E01AD
:101AC000B12C8AEFA82E93E0892E2AE3922EC1141E
:101AD000D10419F4BB2009F442C00E94280D8111E1
:101AE0000BC0AA94AA2009F441C061E070E080E034
:101AF00090E00E94480AEBCF8C151D0411F00CF009
:101B00008C2D9FB7F8948092E9002091E80025FD84
:101B100002C09FBFDCCF282F30E0C21AD30A502F5B
:101B2000412F815040F0E52FF42F41914093F10077
:101B30005E2F4F2FF6CF020F131FBB2021F0909284
:101B4000E800B12CE6CF8091E80085FDE2CF9092CD
:101B5000E800BB24B394C114D104D9F2F2CF5D984C
:101B600084E6809361041C161D063CF081E090E041
:101B7000F70193838283D0E0C0E0CE01DF91CF9163
:101B80001F910F91FF90EF90DF90CF90BF90AF909B
:101B90009F908F90089590917604911103C08FEFDC
:101BA0009FEF08954FB7F89492E09093E9009091D9
:101BB000F200292F30E0992311F021E030E0232BAF
:101BC00031F0289884E6809366048091F10099238F
:101BD00039F02091F200211103C02BE62093E80098
:101BE0004FBF9923E1F290E00895CF93DF93EC018A
:101BF0008C859D8597FF04C00E94CB0D9D878C87A7
:101C00008C859D85DF91CF910895FC018485958514
:101C100097FD0C94CB0D2FEF3FEF35872487089568
:101C20009091D304982329F49091D204982381E0D1
:101C300009F480E00895E0EEF4E0A0E0B8E0008070
:101C40000EBC8111012C1197A0FDFDCF0192B9F7B7
:101C50000DB40895FF920F931F93CF93DF93F82E47
:101C6000EB018B01040F151FC017D10749F0F7FED8
:101C70000DC0FE0184910E94B70921968111F4CF15
:101C8000DF91CF911F910F91FF9008958881F3CF3D
:101C90000F931F93CF93DF930F92CDB7DEB782E000
:101CA000898342E450E06DE078E080E80E942A0EEB
:101CB0000E949609DC0112960D911C9101151105E7
:101CC00089F0D801ED91FC910280F381E02DBE01F5
:101CD0006F5F7F4FC801099597FD04C0F80100852B
:101CE0001185ECCF89810F90DF91CF911F910F91DA
:101CF00008950F931F93CF93DF93EC0181E090E061
:101D00000E942A3080FF2EC08AE090E00E942A3094
:101D1000682F8FEF860F8E3F28F582E390E0988B37
:101D20008F8788E390E09A8B898B0BE010E0E88145
:101D3000F9810190F081E02DCE010995C8010E9442
:101D40002A30682F0F5F1F4F0131110581F780E0A6
:101D50000E941B0E88EE93E0DF91CF911F910F91AF
:101D60000C948E0ADF91CF911F910F9108950497E3
:101D70000C94790EBC01009761F0FC0101900020E9
:101D8000E9F73197AF01481B590B89EC94E00C94AB
:101D9000E00A08954F925F926F927F92AF92BF9246
:101DA000CF92DF92EF92FF920F931F93CF93DF9327
:101DB000CDB7DEB7A1970FB6F894DEBF0FBECDBF8B
:101DC0006B017C0119A25E0181E2A80EB11C8AE0C0
:101DD000482E512C612C712CB601C701A301920130
:101DE0000E944B30922F832F86019701C92ED82E47
:101DF0007A01605DF50162935F010A3011052105EA
:101E0000310550F7CF010E94BA0EA1960FB6F89493
:101E1000DEBF0FBECDBFDF91CF911F910F91FF901D
:101E2000EF90DF90CF90BF90AF907F906F905F90DA
:101E30004F900895AB0170E060E00C942330CF9395
:101E4000DF930F92CDB7DEB761E070E0CE0101966F
:101E50000E941A0F88EF0F90DF91CF910895CF93D2
:101E6000DF930F92CDB7DEB761E070E0CE0101964F
:101E70000E941A0F85E00F90DF91CF910895CF93C4
:101E8000DF930F92CDB7DEB761E070E0CE0101962F
:101E90000E941A0F86E00F90DF91CF910895CF93A3
:101EA000DF930F92CDB7DEB761E070E0CE0101960F
:101EB0000E941A0F88E00F90DF91CF910895CF9381
:101EC000DF930F92CDB7DEB761E070E0CE010196EF
:101ED0000E941A0F8AE00F90DF91CF910895CF935F
:101EE000DF930F92CDB7DEB761E070E0CE010196CF
:101EF0000E941A0F88E10F90DF91CF910895CF9340
:101F0000DF930F92CDB7DEB761E070E0CE010196AE
:101F10000E941A0F80E00F90DF91CF910895CF9328
:101F2000DF930F92CDB7DEB761E070E0CE0101968E
:101F30000E941A0F83E10F90DF91CF910895CF9304
:101F4000DF930F92CDB7DEB761E070E0CE0101966E
:101F50000E941A0F8EE00F90DF91CF910895CF93DA
:101F6000DF930F92CDB7DEB761E070E0CE0101964E
:101F70000E941A0F87E00F90DF91CF910895CF93C1
:101F8000DF930F92CDB7DEB761E070E0CE0101962E
:101F90000E941A0F87E10F90DF91CF910895CF93A0
:101FA000DF930F92CDB7DEB761E070E0CE0101960E
:101FB0000E941A0F89EF0F90DF91CF910895CF9370
:101FC000DF930F92CDB7DEB761E070E0CE010196EE
:101FD0000E941A0F8DEE0F90DF91CF910895CF934D
:101FE000DF930F92CDB7DEB761E070E0CE010196CE
:101FF0000E941A0F88EE0F90DF91CF910895CF9332
:10200000DF930F92CDB7DEB761E070E0CE010196AD
:102010000E941A0F82EF0F90DF91CF910895CF9316
:10202000DF930F92CDB7DEB761E070E0CE0101968D
:102030000E941A0F89EE0F90DF91CF910895CF93F0
:10204000DF930F92CDB7DEB761E070E0CE0101966D
:102050000E941A0F8FE00F90DF91CF910895CF93D8
:10206000DF930F92CDB7DEB761E070E0CE0101964D
:102070000E941A0F89E00F90DF91CF910895CF93BE
:10208000DF930F92CDB7DEB761E070E0CE0101962D
:102090000E941A0F8DE00F90DF91CF910895CF939A
:1020A000DF930F92CDB7DEB761E070E0CE0101960D
:1020B0000E941A0F80E10F90DF91CF910895CF9386
:1020C000DF930F92CDB7DEB761E070E0CE010196ED
:1020D0000E941A0F87EF0F90DF91CF910895CF9351
:1020E000DF930F92CDB7DEB761E070E0CE010196CD
:1020F0000E941A0F81EF0F90DF91CF910895CF9337
:10210000DF930F92CDB7DEB761E070E0CE010196AC
:102110000E941A0F8BEF0F90DF91CF910895CF930C
:10212000DF930F92CDB7DEB761E070E0CE0101968C
:102130000E941A0F83EF0F90DF91CF910895CF93F4
:10214000DF930F92CDB7DEB761E070E0CE0101966C
:102150000E941A0F80EF0F90DF91CF910895CF93D7
:10216000DF930F92CDB7DEB761E070E0CE0101964C
:102170000E941A0F82E00F90DF91CF910895CF93C4
:10218000DF930F92CDB7DEB761E070E0CE0101962C
:102190000E941A0F8EEF0F90DF91CF910895CF9389
:1021A000DF930F92CDB7DEB761E070E0CE0101960C
:1021B0000E941A0F8AEF0F90DF91CF910895CF936D
:1021C000DF930F92CDB7DEB761E070E0CE010196EC
:1021D0000E941A0F80E00F90DF91CF910895FF9237
:1021E0000F931F93CF93DF9300D000D0CDB7DEB70E
:1021F0008C01F62E62E070E0CE0101960E941A0F6B
:1022000062E070E0CE0103960E941A0FC8018F0DA4
:10221000911DF7FC9A950F900F900F900F90DF9102
:10222000CF911F910F91FF9008950F931F93CF931C
:10223000DF9300D0CDB7DEB7082F162F61E070E036
:10224000CE0101960E941A0F61E070E0CE01029665
:102250000E941A0F802F810F0F900F90DF91CF9166
:102260001F910F9108952F923F924F925F926F921C
:102270007F928F929F92AF92BF92CF92DF92EF9216
:10228000FF920F931F93CF93DF93CDB7DEB7E19704
:102290000FB6F894DEBF0FBECDBFE0909804F0906B
:1022A0009904C7010E94B80C8C0180919A04909106
:1022B0009B040E94B80C080F191F0D5F1F4F25E0EB
:1022C000209FC001219F900D112497FD01969595A7
:1022D0008795919581959109805C9F4F9093D90442
:1022E0008093D80489E090E09093DB048093DA0433
:1022F000B12CA12CC501B7010E94CA0E89E391E05F
:102300000E94BA0E80919A0490919B045C01D12C9A
:10231000C12CAF86B88AC98ADA8AC601B5010E9483
:10232000CA0E8CE391E00E94BA0EB090C004BBA626
:102330001B2D123009F4C6C08090B7049090B804E9
:10234000A090B904B090BA048F86988AA98ABA8AF4
:10235000B501A401B2E07695679557954795BA9572
:10236000D1F74A0101E0802299242F8438884988D6
:102370005A8812E0211A31084108510812E0569497
:102380004794379427941A95D1F721E022223324D9
:102390008F859889A989BA89B695A79597958795C4
:1023A00081709927AA27BB270F85188929893A891F
:1023B000017011272227332758016901A81AB90A89
:1023C000CA0ADB0AAFA2B8A6C9A6DAA68A019B018F
:1023D00001701127222733270F8B188F298F3A8FEF
:1023E0005C016D01A01AB10AC20AD30AABA2BCA259
:1023F000CDA2DEA28091BF04823009F0C2C166E0A6
:1024000070E0CE0101960E941A0F80919504909180
:1024100096040E94AC0C25E330E0281B390BA9017F
:10242000421953091A018DE0D82ED8188BA48820A0
:1024300011F40C94581CA090B404B090B504B88E5C
:10244000AF8A45011C861B8616E064EF462E6EE0BF
:10245000562E612C712C2F85388949895A89421A48
:10246000530A640A750A5101AD0CB11CB8A2AF8EB3
:1024700072E0F72E04E08016910408F051C4F401D4
:10248000EE0FFF1FEA52F84F859194916EE772E0CC
:102490000E94F52F189F5001199FB00C1124C501FF
:1024A000B0E0A0E084159505A605B70508F4C0C204
:1024B0002B853C852F5F3F4F3C872B870FEF801A82
:1024C000900AD8CFABE76A2EA4E07A2E512C412C8B
:1024D00015E0D3012C918090B7049090B804A0909F
:1024E000B904B090BA04D501C40181709927AA2714
:1024F000BB278FA398A7A9A7BAA775016401F69473
:10250000E794D794C79491E0C922DD24EE24FF24F8
:102510008FA198A5A9A5BAA58C199D09AE09BF09D7
:102520008F87988BA98BBA8BD501C401F2E0B69541
:10253000A79597958795FA95D1F781709927AA273E
:10254000BB27C81AD90AEA0AFB0A222309F46DC07C
:10255000213009F4BBC08091BF04823021F10E9478
:102560002F0F89830E943F0F8A830E944F0F8B8316
:102570000E945F0F8C8361E070E0CE0107960E949D
:102580001A0FFBE0FD83E1E0F0E0EC0FFD1FE40D2E
:10259000F51D6081D30111968D919C910E94EF10E1
:1025A000F3019283818362E070E0CE0101960E9484
:1025B0001A0FD30111968D919C91813098404CF166
:1025C0009401237033272F5F3F4F44ED5FEF249F2B
:1025D000C001259F900D349F900D112404E0880FB9
:1025E000991F0A95E1F7F30192838183CFA0D8A4C4
:1025F000E9A4FAA4CD28CE28CF2809F0B5C081E0FF
:10260000808307E08022992426E2820E911C948226
:102610008382BFEF4B1A5B0AE5E06E0E711CF5E09A
:102620004F16510409F055CF87CE80919704282F7B
:1026300030E050E040E02BA33CA34DA35EA3149DEB
:10264000F001159DF00D1124E558FB4F8181928119
:102650000E94AC0C1C01A70196016BA17CA18DA16D
:102660009EA10E94E52F6B877C878D879E87DC016A
:10267000CB01B695A79597958795F3012381348172
:10268000F901E80FF91F2F85388949895A896BA10B
:102690007CA18DA19EA10E94E52F6F87788B898BED
:1026A0009A8BDC01CB01B695A79597958795820DFE
:1026B000931DCC24C3947CE2E72E0BE22AE231E0A6
:1026C0004CE252E0BF010E94090B45CF8091970474
:1026D000282F30E050E040E02BA33CA34DA35EA3A5
:1026E000149DF001159DF00D1124E558FB4F8181DB
:1026F00092810E94AC0C1C01A70196016BA17CA1E8
:102700008DA19EA10E94E52F6B877C878D879E8778
:10271000DC01CB01B695A79597958795F3012381A9
:102720003481F901E80FF91F2F85388949895A89C1
:102730006BA17CA18DA19EA10E94E52F6F87788B54
:10274000898B9A8BDC01CB01B695A79597958795D8
:10275000820D931DCC24C39446E1E42E05E12CEABE
:1027600030E04BEE50E0AECF1082BFE08B229924D8
:10277000E0E18E0E911CD30114969C928E921397D9
:1027800048CF80919504909196040E94AC0C5C0116
:10279000E5E3F0E0E81BF90B8091B604813009F421
:1027A00077C0DBA4DD2009F42ACE882309F4DDC03C
:1027B0001BA5113009F423CE823009F020CE1091F0
:1027C0009704A12FB0E02FA138A549A55AA50E94D2
:1027D00040302B013C0176946794579447942BA189
:1027E0003CA14DA15EA10E9440306B017C01F6949A
:1027F000E794D794C794CB86DC86ED86FE86BF012E
:10280000621973096C0D7D1DC20182599F4F2AEF19
:10281000C22E36E0E32E06E030E020E044E353E051
:102820000E94090B6CE370E06A197B096819790949
:10283000EB84FC846E0D7F1DC20180599F4F44E0E4
:10284000E42E30E020E04EE253E00E94090B8CE4DD
:1028500093E09A83898386E493E09C838B83EF895A
:10286000F88DEE0FFF1FEC0FFD1F4181528160E4D8
:1028700070E06A197B09681979090B851C85600F5E
:10288000711FC20181599F4FE2E0EE2E06E068C041
:1028900010919704A12FB0E02FA138A549A55AA502
:1028A0000E9440302B013C017694679457944794E2
:1028B0002BA13CA14DA15EA10E9440307B018C0167
:1028C00016950795F794E794EB86FC860D871E878F
:1028D000BF01621973096E0D7F1DC20182599F4F9E
:1028E000EAEFCE2EF6E0EF2E06E030E020E048E5FD
:1028F00053E00E94090B6CE370E06A197B096819C8
:1029000079090B851C85600F711FC20180599F4F8B
:10291000A4E0EA2E06E030E020E042E553E00E9429
:10292000090B8CE493E09A83898386E493E09C838B
:102930008B83EF89F88DEE0FFF1FEC0FFD1F418198
:10294000528160E470E06A197B09681979092B8566
:102950003C85620F731FC20181599F4FF2E0EF2E39
:1029600030E020E00E94090B4ACD10919704A12F7E
:10297000B0E02FA138A549A55AA50E9440302B01EF
:102980003C0176946794579447942BA13CA14DA1A8
:102990005EA10E9440309B01AC015695479537954A
:1029A00027952B873C874D875E87BF016219730986
:1029B000620F731FC20182599F4F2AEFC22E36E069
:1029C000E32E06E030E020E040E453E00E94090BF3
:1029D0006CE370E06A197B09681979094B855C859D
:1029E000640F751FC20180599F4F44E0E42E30E010
:1029F00020E04AE353E00E94090B8CE493E09A83C1
:102A0000898386E493E09C838B83EF89F88DEE0FB6
:102A1000FF1FEC0FFD1F4181528160E470E06A19D5
:102A20007B09681979098B859C85680F791F93CF7D
:102A3000A3019201281B390B4A0B5B0BDA01C90178
:102A40008F389105A105B10508F06AC1A418B50831
:102A5000A50140585F4F5C8F4B8F00919704169FE4
:102A6000F001179FF00D11243596A02FB0E02BA197
:102A70003CA14DA15EA10E944030DC01CB01B69586
:102A8000A79597958795E80FF91FA02FB0E02FA184
:102A900038A549A55AA50E9440306B8B7C8B8D8B45
:102AA0009E8BDC01CB01B695A795979587952B8DCD
:102AB0003C8D820F931F2091B6043AEFC32E43E161
:102AC000E42E0FE030E0222309F423C120E049EA9C
:102AD00057E0BF010E94090B35E8A30EB11C4EE67A
:102AE000A416B1040CF4EACC8B8D9C8D863791052D
:102AF0000CF0E4CC90E4291631040CF0DFCCAF8C60
:102B0000B8A01A141B040CF0D9CC8091BF048230F9
:102B100009F4D4CCF092BF040E946F0F082F0E94DA
:102B20007F0F282F402FB1018EE690E00E94D70C36
:102B30000E948F0F082F0E949F0F282F402FB10156
:102B40008EE690E00E94D70C0E94AF0F082F0E94E3
:102B5000BF0F282F402FB1018EE690E00E94D70CC6
:102B60000E94CF0F082F0E94BF0F282F402FB101C6
:102B70008EE690E00E94D70C0E94DF0F082F0E9483
:102B80009F0F282F402FB1018EE690E00E94D70CB6
:102B90000E94EF0F082F0E947F0F282F402FB101B6
:102BA0008EE690E00E94D70C0E94DF0F082F0E9453
:102BB000FF0F282F402FB1018EE690E00E94D70C26
:102BC0000E94CF0F082F0E940F10282F402FB10115
:102BD0008EE690E00E94D70C0E94AF0F082F0E9453
:102BE0000F10282F402FB1018EE690E00E94D70CE5
:102BF0000E948F0F082F0E94FF0F282F402FB10136
:102C00008EE690E00E94D70C0E946F0F082F0E9462
:102C10007F0F282F402FB1018EE690E00E94D70C45
:102C20000E941F10082F0E942F0F282F402FB10144
:102C30008EE690E00E94D70C0E942F10082F0E9471
:102C40003F10282F402FB1018EE690E00E94D70C54
:102C50000E947F0F082F0E944F10282F402FB10194
:102C60008EE690E00E94D70C0E945F10082F0E9411
:102C70003F10282F402FB1018EE690E00E94D70C24
:102C80000E946F10082F0E942F0F282F402FB10194
:102C90008EE690E00E94D70C0E946F10082F0E94D1
:102CA0007F10282F402FB1018EE690E00E94D70CB4
:102CB0000E945F10082F0E948F10282F402FB10113
:102CC0008EE690E00E94D70C0E947F0F082F0E9492
:102CD0009F10282F402FB1018EE690E00E94D70C64
:102CE0000E942F10082F0E948F10282F402FB10113
:102CF0008EE690E00E94D70C0E941F10082F0E94C1
:102D00007F10282F402FB1018EE690E00E94D70C53
:102D1000D5CB20E04CE757E0BF010E94090BCECB9A
:102D20008B859C858F88988C880D991D9093B50410
:102D30008093B404A090AE04B090AF04BC8EAB8E70
:102D400035011C861B8616E084EF9EE0A0E0B0E013
:102D50004C015D012F85388949895A89821A930A65
:102D6000A40AB50A8F8A988EA98EBA8E41018D0C5D
:102D7000911C9DA68CA600E16016710408F0C9C1E3
:102D800081E090E0062C02C0880F991F0A94E2F7B8
:102D9000B0E0A0E04091A4045091A5046091A60485
:102DA0007091A70484239523A623B723892B8A2B0C
:102DB0008B2B11F5F301EE0FFF1FE45AF84F8591AD
:102DC00094916EE772E00E94F52F189F4001199FC1
:102DD000900C1124C401B0E0A0E02F89388D498DFA
:102DE0005A8D82179307A407B50750F04B855C8571
:102DF0004F5F5F4F5C874B874FEF641A740ABBCFFE
:102E00002F89388D498D5A8D281B390B4A0B5B0B46
:102E1000DA01C90186389105A105B10508F079C12B
:102E2000169F2001179F500C11244F89588D841A2A
:102E3000950A540150E8A50EB11CC20142969C8B24
:102E40008B8B00919704A02FB0E02BA13CA14DA14A
:102E50005EA10E944030DC01CB01B695A795979505
:102E60008795EB89FC89E80FF91FA02FB0E02FA10F
:102E700038A549A55AA50E9440306F8F78A389A331
:102E80009AA3DC01CB01B695A795979587958A0DF6
:102E90009B1D4AEFC42E57E0E52E06E030E020E00F
:102EA00046E557E0BF010E94090B8091B6048111ED
:102EB000A3CF95E8890E911CAEE68A1691040CF416
:102EC0009BCFB6E7AB16B1040CF096CFC201479684
:102ED000821593050CF490CF8CA49DA4EB88FC88FC
:102EE000E814F9040CF088CF8091A4049091A50413
:102EF000A091A604B091A70441E050E060E070E02A
:102F0000062C04C0440F551F661F771F0A94D2F782
:102F1000842B952BA62BB72B8093A4049093A50408
:102F2000A093A604B093A70480919804909199046B
:102F30008C599F4F90939904809398040E944F104E
:102F4000082F0E947F0F282F35E1430E511C402F80
:102F5000B201C5010E94D70C0E943F10082F0E94A9
:102F60002F10282F402FB201C5010E94D70C0E94BC
:102F70002F0F082F0E941F10282F402FB201C501CC
:102F80000E94D70C0E947F10082F0E941F10282F2C
:102F9000402FB201C5010E94D70C0E948F10082F4C
:102FA0000E942F10282F402FB201C5010E94D70C7C
:102FB0000E949F10082F0E947F0F282F402FB201E0
:102FC000C5010E94D70C0E948F10082F0E945F102D
:102FD000282F402FB201C5010E94D70C0E947F10FC
:102FE000082F0E946F10282F402FB201C5010E94A8
:102FF000D70C0E942F0F082F0E946F10282F402FF0
:10300000B201C5010E94D70C0E943F10082F0E94F8
:103010005F10282F402FB201C5010E94D70C0E94DB
:103020004F10082F0E947F0F282F402FB201C5019B
:103030000E94D70C0E944F0F082F0E94AF10282F1C
:10304000402FB201C5010E94D70C0E942F0F082FFC
:103050000E943F0F282F402FB201C5010E94D70CBC
:103060000E947F0F082F0E944F0F282F402FB20180
:10307000C5010E94D70C0E947F10082F0E943F0FAD
:10308000282F402FB201C5010E94D70C0E941F0FAC
:10309000082F0E94AF10282F402FB201C5010E94B7
:1030A000D70C0E941F0F082F0E94BF10282F402FFF
:1030B000B201C5010E94D70C0E947F10082F0E9408
:1030C000CF10282F402FB201C5010E94D70C0E94BB
:1030D0007F0F082F0E941F0F282F402FB201C5011C
:1030E0000E94D70C0E942F0F082F0E94CF10282F6C
:1030F000402FB201C5010E94D70C0E944F0F082F2C
:103100000E94BF10282F402FB201C5010E94D70C8A
:1031100073CE8B859C858B8C9C8C880D991D909390
:10312000AF048093AE041BA5113009F4C1C3809095
:10313000B0049090B104988E8F8A1C861B8616E08E
:1031400004EF402E0EE0502E612C712C2F85388913
:1031500049895A89421A530A640A750A5101AD0C09
:10316000B11CB8A2AF8E82E0F82E06E08016910462
:1031700008F09AC1F401EE0FFF1FE65BF84F85914E
:1031800094916EE772E00E94F52F189F5001199FED
:10319000B00C1124C501B0E0A0E084159505A6058A
:1031A000B70550F02B853C852F5F3F4F3C872B8721
:1031B0000FEF801A900AD9CFA3019201281B390B77
:1031C0004A0B5B0BDA01C9018F389105A105B105E6
:1031D00008F06AC1A418B508A50140585F4F5C8F7C
:1031E0004B8F00919704169FF001179FF00D11244B
:1031F0003596A02FB0E02BA13CA14DA15EA10E946D
:103200004030DC01CB01B695A79597958795E80FDF
:10321000F91FA02FB0E02FA138A549A55AA50E94FB
:1032200040306B8B7C8B8D8B9E8BDC01CB01B695FC
:10323000A795979587952B8D3C8D820F931F209195
:10324000B6047AEFC72EA3E1EA2E0FE030E0223079
:1032500009F423C120E04DE157E0BF010E94090BB2
:1032600035E8A30EB11C4EE6A416B1040CF4A0CFB1
:103270008B8D9C8D863791050CF09ACF90E42916A2
:1032800031040CF095CFAF8CB8A01A141B040CF0CD
:103290008FCF8091BF04823009F48ACFF092BF04AF
:1032A0000E946F0F082F0E947F0F282F402FB1011F
:1032B0008EE690E00E94D70C0E948F0F082F0E948C
:1032C0009F0F282F402FB1018EE690E00E94D70C6F
:1032D0000E94AF0F082F0E94BF0F282F402FB1016F
:1032E0008EE690E00E94D70C0E94CF0F082F0E941C
:1032F000BF0F282F402FB1018EE690E00E94D70C1F
:103300000E94DF0F082F0E949F0F282F402FB1012E
:103310008EE690E00E94D70C0E94EF0F082F0E94CB
:103320007F0F282F402FB1018EE690E00E94D70C2E
:103330000E94DF0F082F0E94FF0F282F402FB1019E
:103340008EE690E00E94D70C0E94CF0F082F0E94BB
:103350000F10282F402FB1018EE690E00E94D70C6D
:103360000E94AF0F082F0E940F10282F402FB1018D
:103370008EE690E00E94D70C0E948F0F082F0E94CB
:10338000FF0F282F402FB1018EE690E00E94D70C4E
:103390000E946F0F082F0E947F0F282F402FB1012E
:1033A0008EE690E00E94D70C0E941F10082F0E940A
:1033B0002F0F282F402FB1018EE690E00E94D70CEE
:1033C0000E942F10082F0E943F10282F402FB1017C
:1033D0008EE690E00E94D70C0E947F0F082F0E947B
:1033E0004F10282F402FB1018EE690E00E94D70C9D
:1033F0000E945F10082F0E943F10282F402FB1011C
:103400008EE690E00E94D70C0E946F10082F0E9459
:103410002F0F282F402FB1018EE690E00E94D70C8D
:103420000E946F10082F0E947F10282F402FB1019B
:103430008EE690E00E94D70C0E945F10082F0E9439
:103440008F10282F402FB1018EE690E00E94D70CFC
:103450000E947F0F082F0E949F10282F402FB1013C
:103460008EE690E00E94D70C0E942F10082F0E9439
:103470008F10282F402FB1018EE690E00E94D70CCC
:103480000E941F10082F0E947F10282F402FB1018B
:103490008EE690E00E94D70C8BCE20E040EF56E005
:1034A000BF010E94090B84CE8B859C858F88988CE8
:1034B000880D991D9093B1048093B004A090AA0444
:1034C000B090AB04BC8EAB8E35011C861B8616E01B
:1034D00084EF9EE0A0E0B0E04C015D012F853889CB
:1034E00049895A89821A930AA40AB50A8F8A988E42
:1034F000A98EBA8E41018D0C911C9DA68CA600E16F
:103500006016710408F0CAC181E090E0062C02C088
:10351000880F991F0A94E2F7B0E0A0E040919C0464
:1035200050919D0460919E0470919F048423952383
:10353000A623B723892B8A2B8B2B11F5F301EE0FD2
:10354000FF1FE053F94F859194916EE772E00E945E
:10355000F52F189F4001199F900C1124C401B0E071
:10356000A0E02F89388D498D5A8D82179307A407C3
:10357000B50750F04B855C854F5F5F4F5C874B878D
:103580004FEF641A740ABBCF2F89388D498D5A8D3D
:10359000281B390B4A0B5B0BDA01C90186389105F0
:1035A000A105B10508F07AC1169F2001179F500CA4
:1035B00011244F89588D841A950A540150E8A50E9C
:1035C000B11CC20142969C8B8B8B00919704A02F5B
:1035D000B0E02BA13CA14DA15EA10E944030DC01D6
:1035E000CB01B695A79597958795EB89FC89E80F50
:1035F000F91FA02FB0E02FA138A549A55AA50E9418
:1036000040306F8F78A389A39AA3DC01CB01B695D4
:10361000A795979587958A0D9B1D2AEFC22E37E0B7
:10362000E32E06E030E020E04AEC56E0BF010E94C5
:10363000090B8091B604823009F0A2CF95E8890E7B
:10364000911CAEE68A1691040CF49ACFB6E7AB163D
:10365000B1040CF095CFC2014796821593050CF486
:103660008FCF8CA49DA4EB88FC88E814F9040CF09F
:1036700087CF80919C0490919D04A0919E04B0916D
:103680009F0441E050E060E070E0062C04C0440F6D
:10369000551F661F771F0A94D2F7842B952BA62BF4
:1036A000B72B80939C0490939D04A0939E04B093A9
:1036B0009F0480919804909199048C599F4F909306
:1036C0009904809398040E944F10082F0E947F0F46
:1036D000282F35E1430E511C402FB201C5010E9435
:1036E000D70C0E943F10082F0E942F10282F402F28
:1036F000B201C5010E94D70C0E942F0F082F0E9413
:103700001F10282F402FB201C5010E94D70C0E9424
:103710007F10082F0E941F10282F402FB201C501D3
:103720000E94D70C0E948F10082F0E942F10282F64
:10373000402FB201C5010E94D70C0E949F10082F94
:103740000E947F0F282F402FB201C5010E94D70C85
:103750000E948F10082F0E945F10282F402FB20167
:10376000C5010E94D70C0E947F10082F0E946F1085
:10377000282F402FB201C5010E94D70C0E942F0FA5
:10378000082F0E946F10282F402FB201C5010E9400
:10379000D70C0E943F10082F0E945F10282F402F47
:1037A000B201C5010E94D70C0E944F10082F0E9441
:1037B0007F0F282F402FB201C5010E94D70C0E9415
:1037C0004F0F082F0E94AF10282F402FB201C501C4
:1037D0000E94D70C0E942F0F082F0E943F0F282F06
:1037E000402FB201C5010E94D70C0E947F0F082F05
:1037F0000E944F0F282F402FB201C5010E94D70C05
:103800000E947F10082F0E943F0F282F402FB201E7
:10381000C5010E94D70C0E941F0F082F0E94AF10F5
:10382000282F402FB201C5010E94D70C0E941F0F04
:10383000082F0E94BF10282F402FB201C5010E94FF
:10384000D70C0E947F10082F0E94CF10282F402FE6
:10385000B201C5010E94D70C0E947F0F082F0E9461
:103860001F0F282F402FB201C5010E94D70C0E94C4
:103870002F0F082F0E94CF10282F402FB201C50113
:103880000E94D70C0E944F0F082F0E94BF10282FB4
:10389000402FB201C5010E94D70C72CE8B859C854A
:1038A0008B8C9C8C880D991D9093AB048093AA04FB
:1038B000A090B204B090B304B88EAF8A45011C86C4
:1038C0001B8616E074EF472E7EE0572E612C712C7C
:1038D0002F85388949895A89421A530A640A750A18
:1038E0005101AD0CB11CB8A2AF8EE2E0FE2E05E096
:1038F0008016910408F09AC1F401EE0FFF1FE05406
:10390000F94F859194916EE772E00E94F52F189F10
:103910005001199FB00C1124C501B0E0A0E084153E
:103920009505A605B70550F02B853C852F5F3F4FC9
:103930003C872B870FEF801A900AD9CFA301920101
:10394000281B390B4A0B5B0BDA01C9018F38910533
:10395000A105B10508F06AC1A418B508A501405831
:103960005F4F5C8F4B8F00919704169FF001179F5C
:10397000F00D11243596A02FB0E02BA13CA14DA154
:103980005EA10E944030DC01CB01B695A7959795CA
:103990008795E80FF91FA02FB0E02FA138A549A502
:1039A0005AA50E9440306B8B7C8B8D8B9E8BDC01EB
:1039B000CB01B695A795979587952B8D3C8D820F5A
:1039C000931F2091B6044AEFC42E53E1E52E0FE079
:1039D00030E0213009F423C120E043E956E0BF0183
:1039E0000E94090B35E8A30EB11C4EE6A416B104E3
:1039F0000CF4A0CF8B8D9C8D863791050CF09ACF5F
:103A000090E4291631040CF095CFAF8CB8A01A14AD
:103A10001B040CF08FCF8091BF04823009F48ACF51
:103A2000F092BF040E946F0F082F0E947F0F282F73
:103A3000402FB1018EE690E00E94D70C0E948F0FBC
:103A4000082F0E949F0F282F402FB1018EE690E093
:103A50000E94D70C0E94AF0F082F0E94BF0F282F83
:103A6000402FB1018EE690E00E94D70C0E94CF0F4C
:103A7000082F0E94BF0F282F402FB1018EE690E043
:103A80000E94D70C0E94DF0F082F0E949F0F282F43
:103A9000402FB1018EE690E00E94D70C0E94EF0FFC
:103AA000082F0E947F0F282F402FB1018EE690E053
:103AB0000E94D70C0E94DF0F082F0E94FF0F282FB3
:103AC000402FB1018EE690E00E94D70C0E94CF0FEC
:103AD000082F0E940F10282F402FB1018EE690E092
:103AE0000E94D70C0E94AF0F082F0E940F10282FA2
:103AF000402FB1018EE690E00E94D70C0E948F0FFC
:103B0000082F0E94FF0F282F402FB1018EE690E072
:103B10000E94D70C0E946F0F082F0E947F0F282F42
:103B2000402FB1018EE690E00E94D70C0E941F103A
:103B3000082F0E942F0F282F402FB1018EE690E012
:103B40000E94D70C0E942F10082F0E943F10282F90
:103B5000402FB1018EE690E00E94D70C0E947F0FAB
:103B6000082F0E944F10282F402FB1018EE690E0C1
:103B70000E94D70C0E945F10082F0E943F10282F30
:103B8000402FB1018EE690E00E94D70C0E946F108A
:103B9000082F0E942F0F282F402FB1018EE690E0B2
:103BA0000E94D70C0E946F10082F0E947F10282FB0
:103BB000402FB1018EE690E00E94D70C0E945F106A
:103BC000082F0E948F10282F402FB1018EE690E021
:103BD0000E94D70C0E947F0F082F0E949F10282F51
:103BE000402FB1018EE690E00E94D70C0E942F106A
:103BF000082F0E948F10282F402FB1018EE690E0F1
:103C00000E94D70C0E941F10082F0E947F10282F9F
:103C1000402FB1018EE690E00E94D70C8BCE20E0C1
:103C200046E656E0BF010E94090B84CE8B859C8539
:103C30008F88988C880D991D9093B3048093B2045B
:103C4000A090A804B090A904B88EAF8A2501712C69
:103C5000612C16E084EF9EE0A0E0B0E04C015D0135
:103C60002F85388949895A89821A930AA40AB50A84
:103C70008B869C86AD86BE8641018D0C911C98A2D8
:103C80008F8E02E0F02E0CE24016510408F092C133
:103C9000F201EE0FFF1FE25FF94F859194916EE7FD
:103CA00072E00E94F52F189F5001199FB00C11244B
:103CB000C501B0E0A0E02B853C854D855E8582176F
:103CC0009307A407B50738F03FEF631A730A0FEFA5
:103CD000401A500AD8CF2B853C854D855E85281B20
:103CE000390B4A0B5B0BDA01C90186389105A10536
:103CF000B10508F05FC1169F4001179F900C112479
:103D00004B855C85A41AB50AC40142969C8F8B8FA3
:103D100000919704A02FB0E02BA13CA14DA15EA182
:103D20000E944030DC01CB01B695A7959795879509
:103D3000EB8DFC8DE80FF91FA02FB0E02FA138A567
:103D400049A55AA50E9440306B8B7C8B8D8B9E8B36
:103D5000DC01CB01B695A7959795879595012058DD
:103D60003F4F820F931F7AEFC72EA6E0EA2E06E0A0
:103D700030E020E048E056E0BF010E94090B97E1E7
:103D8000A90EB11CADE0AA16B10408F0A0CFB7E1AE
:103D90008B0E911C821493040CF499CF8F8C98A0F5
:103DA000AB8CBC8CA814B9040CF091CF8091BF04EB
:103DB000823009F48CCFF092BF040E946F0F082F5D
:103DC0000E947F0F282F402FB1018EE690E00E94C5
:103DD000D70C0E948F0F082F0E949F0F282F402F73
:103DE000B1018EE690E00E94D70C0E94AF0F082F21
:103DF0000E94BF0F282F402FB1018EE690E00E9455
:103E0000D70C0E94CF0F082F0E94BF0F282F402FE2
:103E1000B1018EE690E00E94D70C0E94DF0F082FC0
:103E20000E949F0F282F402FB1018EE690E00E9444
:103E3000D70C0E94EF0F082F0E947F0F282F402FD2
:103E4000B1018EE690E00E94D70C0E94DF0F082F90
:103E50000E94FF0F282F402FB1018EE690E00E94B4
:103E6000D70C0E94CF0F082F0E940F10282F402F31
:103E7000B1018EE690E00E94D70C0E94AF0F082F90
:103E80000E940F10282F402FB1018EE690E00E9473
:103E9000D70C0E948F0F082F0E94FF0F282F402F52
:103EA000B1018EE690E00E94D70C0E946F0F082FA0
:103EB0000E947F0F282F402FB1018EE690E00E94D4
:103EC000D70C0E941F10082F0E942F0F282F402F61
:103ED000B1018EE690E00E94D70C0E942F10082FAF
:103EE0000E943F10282F402FB1018EE690E00E94E3
:103EF000D70C0E947F0F082F0E944F10282F402FB1
:103F0000B1018EE690E00E94D70C0E945F10082F4E
:103F10000E943F10282F402FB1018EE690E00E94B2
:103F2000D70C0E946F10082F0E942F0F282F402FB0
:103F3000B1018EE690E00E94D70C0E946F10082F0E
:103F40000E947F10282F402FB1018EE690E00E9442
:103F5000D70C0E945F10082F0E948F10282F402F2F
:103F6000B1018EE690E00E94D70C0E947F0F082FCF
:103F70000E949F10282F402FB1018EE690E00E94F2
:103F8000D70C0E942F10082F0E948F10282F402F2F
:103F9000B1018EE690E00E94D70C0E941F10082FFE
:103FA0000E947F10282F402FB1018EE690E00E94E2
:103FB000D70C8DCE8F89988D860D971D9093A9046F
:103FC0008093A8048090AC049090AD049C8E8B8E5E
:103FD00034011C861B8616E084EF9EE0A0E0B0E072
:103FE0004C015D012F85388949895A89821A930AC3
:103FF000A40AB50A8F8A988EA98EBA8E41018D0CBB
:10400000911C9DA68CA600E16016710408F0C6C143
:1040100081E090E0062C02C0880F991F0A94E2F715
:10402000B0E0A0E04091A0045091A1046091A204EE
:104030007091A30484239523A623B723892B8A2B6D
:104040008B2B11F5F301EE0FFF1FE851FA4F85910D
:1040500094916EE772E00E94F52F189F4001199F1E
:10406000900C1124C401B0E0A0E0AF88B88CC98CDA
:10407000DA8C8A159B05AC05BD0550F02B853C8577
:104080002F5F3F4F3C872B874FEF641A740ABBCFDB
:10409000AF88B88CC98CDA8CA81AB90ACA0ADB0AAC
:1040A000D601C50186389105A105B10508F076C194
:1040B000169F2001179F500C1124CF88D88C8C1884
:1040C0009D08540100E8A00EB11C92012E5E3F4FE6
:1040D0003C8B2B8B00919704A02FB0E02BA13CA12F
:1040E0004DA15EA10E944030DC01CB01B695A795A1
:1040F00097958795EB89FC89E80FF91FA02FB0E011
:104100002FA138A549A55AA50E9440306F8F78A3EA
:1041100089A39AA3DC01CB01B695A79597958795BE
:104120008A0D9B1D2AEFC22E37E0E32E06E030E019
:1041300020E042EE55E0BF010E94090B8091B604D9
:10414000813009F0A1CF37E1830E911C4DE0841638
:10415000910408F099CFC2014796821593050CF49B
:1041600093CF8CA49DA4CB88DC88C814D9040CF010
:104170008BCF8091A0049091A104A091A204B09152
:10418000A30441E050E060E070E0062C04C0440F5E
:10419000551F661F771F0A94D2F7842B952BA62BE9
:1041A000B72B8093A0049093A104A093A204B09392
:1041B000A30480919804909199048C599F4F9093F7
:1041C0009904809398040E944F10082F0E947F0F3B
:1041D000282F35E1430E511C402FB201C5010E942A
:1041E000D70C0E943F10082F0E942F10282F402F1D
:1041F000B201C5010E94D70C0E942F0F082F0E9408
:104200001F10282F402FB201C5010E94D70C0E9419
:104210007F10082F0E941F10282F402FB201C501C8
:104220000E94D70C0E948F10082F0E942F10282F59
:10423000402FB201C5010E94D70C0E949F10082F89
:104240000E947F0F282F402FB201C5010E94D70C7A
:104250000E948F10082F0E945F10282F402FB2015C
:10426000C5010E94D70C0E947F10082F0E946F107A
:10427000282F402FB201C5010E94D70C0E942F0F9A
:10428000082F0E946F10282F402FB201C5010E94F5
:10429000D70C0E943F10082F0E945F10282F402F3C
:1042A000B201C5010E94D70C0E944F10082F0E9436
:1042B0007F0F282F402FB201C5010E94D70C0E940A
:1042C0004F0F082F0E94AF10282F402FB201C501B9
:1042D0000E94D70C0E942F0F082F0E943F0F282FFB
:1042E000402FB201C5010E94D70C0E947F0F082FFA
:1042F0000E944F0F282F402FB201C5010E94D70CFA
:104300000E947F10082F0E943F0F282F402FB201DC
:10431000C5010E94D70C0E941F0F082F0E94AF10EA
:10432000282F402FB201C5010E94D70C0E941F0FF9
:10433000082F0E94BF10282F402FB201C5010E94F4
:10434000D70C0E947F10082F0E94CF10282F402FDB
:10435000B201C5010E94D70C0E947F0F082F0E9456
:104360001F0F282F402FB201C5010E94D70C0E94B9
:104370002F0F082F0E94CF10282F402FB201C50108
:104380000E94D70C0E944F0F082F0E94BF10282FA9
:10439000402FB201C5010E94D70C76CE8B859C853B
:1043A0008B8C9C8C880D991D9093AD048093AC04EC
:1043B0009BA4911009C00E94BF10682F80919404A3
:1043C0000E941511809394046F85788989899A8950
:1043D00026E030E040E050E00E944B3029013A01F5
:1043E0009A018201095E1F4F2F4F3F4F0F8B188F8D
:1043F000298F3A8F0E3712402105310550F07DE7A5
:10440000872E72E0972EA12CB12C8F8A988EA98EC0
:10441000BA8E6F85788989899A8923E030E040E0F7
:1044200050E00E944B306B8F7C8F8D8F9E8F6F85FD
:10443000788989899A8926E030E040E050E00E943E
:104440004B306F87788B898B9A8B8F8498880AE79B
:10445000800E911C9E012F5F3F4FC1010D9688ABCE
:1044600099AB2B8BD32E2F89388D498D5A8D2415DE
:1044700035054605570508F053C131E423163104CC
:104480000CF048C3C090BD04D090BE040091BB04A2
:104490001091BC04C016D10699F164E070E0CE0121
:1044A00007960E941A0F64E070E09E012F5F3F4F55
:1044B0005901C9010E941A0F64E070E0C5010E9411
:1044C0001A0FDA82C982015011091C830B8389817A
:1044D0009A81AB81BC818F839887A987BA8776013F
:1044E00010E000E0ABA2BFA289859A858E159F05DA
:1044F00008F015C40C0D1D1D1093BE040093BD04DF
:104500008BA48110F4C08091BF04823009F4EFC005
:1045100084E00E94100E811106C080E10E94100EFE
:10452000882309F4BFC061E070E0CE0101960E94CB
:104530001A0F0E947F0F282F81010A5F1F4F40E250
:10454000B8018FE690E00E94D70C61E070E0CE01E8
:1045500001960E941A0F0E948F0F282F4AE1B8017E
:104560008FE690E00E94D70C0E945F0FF82E61E06A
:1045700070E0CE0101960E941A0F2EE14F2DB80176
:104580008FE690E00E94D70C61E070E0CE010196CA
:104590000E941A0F61E070E0CE0101960E941A0F8E
:1045A0002EE146EFB8018FE690E00E94D70C61E063
:1045B00070E0CE0101960E941A0F0E948F0F282FE3
:1045C00046EEB8018FE690E00E94D70C61E070E003
:1045D000CE0101960E941A0F0E947F0F282F40EEF5
:1045E000B8018FE690E00E94D70C61E070E0CE0148
:1045F00001960E941A0F0E94DF0F282F46EEB80185
:104600008FE690E00E94D70C61E070E0CE01019649
:104610000E941A0F61E070E0CE0101960E941A0F0D
:1046200022EE46EFB8018FE690E00E94D70C0E9480
:104630005F0FF82E61E070E0CE0101960E941A0F24
:1046400022EE4F2DB8018FE690E00E94D70C61E07A
:1046500070E0CE0101960E941A0F0E94DF0F282FF2
:104660004AE1B8018FE690E00E94D70C61E070E06B
:10467000CE0101960E941A0F0E947F0F282F40E260
:10468000B8018FE690E00E94D70C86E080939704F3
:104690008091B60490E0019663E070E00E940930DA
:1046A0008093B60488E00E94100E811105C080E856
:1046B0000E94100E882379F080919404882341F0A1
:1046C0000CF0BDC3895F859585958595859519F411
:1046D00080E2809394046091940480919504909179
:1046E00096040E94EF109093960480939504E196AF
:1046F0000FB6F894DEBF0FBECDBFDF91CF911F91F3
:104700000F91FF90EF90DF90CF90BF90AF909F9070
:104710008F907F906F905F904F903F902F90089573
:1047200094012B5F3F4F91E02E3631050CF490E061
:1047300081E0A6E78A1691040CF080E0F92E2E366F
:1047400031050CF0F82EE0E0F3E0FC87EB8706E1A2
:1047500010E0188B0F8762E1A62EB12C11E09201B8
:104760002C593C4F38A32F8FEF8DF8A184918123D2
:104770008113A9C1FF2009F473C160919404809151
:104780009504909196040E94EF100E94AC0C25E3D2
:1047900030E0281B390B4F855889421753070CF41A
:1047A0005FC16091940480919504909196040E9459
:1047B000EF100E94AC0CA2E4B0E0A81BB90BAA1643
:1047C000BB060CF04DC180919504909196040E9417
:1047D000AC0C9C0184E390E0821B930B0091BF041E
:1047E000EF85F889E817F9073CF081E490E0821B37
:1047F000930BA816B90694F10E94DF1090919404CF
:10480000981754F42B853C85309396042093950497
:104810000E94DF1080939404023009F421C10E94A9
:104820004F0F082F8B8D9C8DAD8DBE8D81309105E6
:10483000A105B10509F464C161E070E00297A1052A
:10484000B10509F461C18B899D2D0E941A0F25EFD6
:10485000402F68A979A982E790E000C1023009F4ED
:10486000FFC0F2E0F093BF040E946F0F082F0E9478
:104870007F0F282F402FB1018EE690E00E94D70CC9
:104880000E948F0F082F0E949F0F282F402FB101E9
:104890008EE690E00E94D70C0E94AF0F082F0E9476
:1048A000BF0F282F402FB1018EE690E00E94D70C59
:1048B0000E94CF0F082F0E94BF0F282F402FB10159
:1048C0008EE690E00E94D70C0E94DF0F082F0E9416
:1048D0009F0F282F402FB1018EE690E00E94D70C49
:1048E0000E94EF0F082F0E947F0F282F402FB10149
:1048F0008EE690E00E94D70C0E94DF0F082F0E94E6
:10490000FF0F282F402FB1018EE690E00E94D70CB8
:104910000E94CF0F082F0E940F10282F402FB101A7
:104920008EE690E00E94D70C0E94AF0F082F0E94E5
:104930000F10282F402FB1018EE690E00E94D70C77
:104940000E948F0F082F0E94FF0F282F402FB101C8
:104950008EE690E00E94D70C0E946F0F082F0E94F5
:104960007F0F282F402FB1018EE690E00E94D70CD8
:104970000E941F10082F0E942F0F282F402FB101D7
:104980008EE690E00E94D70C0E942F10082F0E9404
:104990003F10282F402FB1018EE690E00E94D70CE7
:1049A0000E947F0F082F0E944F10282F402FB10127
:1049B0008EE690E00E94D70C0E945F10082F0E94A4
:1049C0003F10282F402FB1018EE690E00E94D70CB7
:1049D0000E946F10082F0E942F0F282F402FB10127
:1049E0008EE690E00E94D70C0E946F10082F0E9464
:1049F0007F10282F402FB1018EE690E00E94D70C47
:104A00000E945F10082F0E948F10282F402FB101A5
:104A10008EE690E00E94D70C0E947F0F082F0E9424
:104A20009F10282F402FB1018EE690E00E94D70CF6
:104A30000E942F10082F0E948F10282F402FB101A5
:104A40008EE690E00E94D70C0E941F10082F0E9453
:104A50007F10282F402FB1018EE690E00E94D70CE6
:104A600000919704A02FB0E02BA13CA14DA15EA125
:104A70000E944030DC01CB01B695A79597958795AC
:104A8000F501E80FF91FA02FB0E02FA138A549A527
:104A90005AA50E9440306CA77DA78EA79FA7DC0176
:104AA000CB01B695A79597958795880D991D4AEFE7
:104AB000C42E56E0E52E06E030E020E04EE553E05F
:104AC000BF010E94090B110F96E0A90EB11CAF8522
:104AD000B8891696B88BAF87EB85FC85E056F1094F
:104AE000FC87EB87F2E4AF16B10409F03DCE4FEF3F
:104AF000441A540A640A740A56E0851A9108B3CC21
:104B00000E941F0F282FA4CE8B899D2D0E941A0F63
:104B100020EF9ECE8091BF04823009F4B3CC82E0B6
:104B20008093BF040E946F0F182F0E947F0F282FC1
:104B3000412FB1018EE690E00E94D70C0E948F0FAA
:104B4000182F0E949F0F282F412FB1018EE690E071
:104B50000E94D70C0E94AF0F182F0E94BF0F282F62
:104B6000412FB1018EE690E00E94D70C0E94CF0F3A
:104B7000182F0E94BF0F282F412FB1018EE690E021
:104B80000E94D70C0E94DF0F182F0E949F0F282F22
:104B9000412FB1018EE690E00E94D70C0E94EF0FEA
:104BA000182F0E947F0F282F412FB1018EE690E031
:104BB0000E94D70C0E94DF0F182F0E94FF0F282F92
:104BC000412FB1018EE690E00E94D70C0E94CF0FDA
:104BD000182F0E940F10282F412FB1018EE690E070
:104BE0000E94D70C0E94AF0F182F0E940F10282F81
:104BF000412FB1018EE690E00E94D70C0E948F0FEA
:104C0000182F0E94FF0F282F412FB1018EE690E050
:104C10000E94D70C0E946F0F182F0E947F0F282F21
:104C2000412FB1018EE690E00E94D70C0E941F1028
:104C3000182F0E942F0F282F412FB1018EE690E0F0
:104C40000E94D70C0E942F10182F0E943F10282F6F
:104C5000412FB1018EE690E00E94D70C0E947F0F99
:104C6000182F0E944F10282F412FB1018EE690E09F
:104C70000E94D70C0E945F10182F0E943F10282F0F
:104C8000412FB1018EE690E00E94D70C0E946F1078
:104C9000182F0E942F0F282F412FB1018EE690E090
:104CA0000E94D70C0E946F10182F0E947F10282F8F
:104CB000412FB1018EE690E00E94D70C0E945F1058
:104CC000182F0E948F10282F412FB1018EE690E0FF
:104CD0000E94D70C0E947F0F182F0E949F10282F30
:104CE000412FB1018EE690E00E94D70C0E942F1058
:104CF000182F0E948F10282F412FB1018EE690E0CF
:104D00000E94D70C0E941F10182F0E947F10282F7E
:104D1000412FB1018EE690E00E94D70CB3CBC701C2
:104D200064E670E00E9409304C0137E0389F500182
:104D3000399FB00C1124A50140565E4F3A015BA586
:104D400051114AC0D3018C91823108F06AC0809120
:104D5000BF04823009F06BC00E94DF10682FF3019E
:104D600085810E941511682F95012F553E4F29010D
:104D7000D9018D919C910E94EF10F2019183808363
:104D800095012D553E4F388B2F8737E0389DC00158
:104D9000399D900D1124AC0140565E4F2A01DA0175
:104DA00016966C91EF85F889808191810E94EF10B1
:104DB000AF85B8898D939C930E94AF10682FF50141
:104DC000EA55FE4F5F0180810E941511D5018C9339
:104DD000F20180818F5F808387E0A82EA89CF0017C
:104DE000A99CF00D1124E056FE4F80819BEAB92E5C
:104DF0008B9D812D112486958BA4881214C0D3011C
:104E000011968D919C910E94AC0C5C01F301838101
:104E100094810E94AC0CBC0141E0C5010E94720863
:104E200002C00F5F1F4FFFEFEF1AFF0A5DCB61E07B
:104E300070E08BA19FA10E941A0F60E190CF885F64
:104E400042CC0F931F93CF93C62FFC010081118199
:104E5000C8010E942A30C81739F06C2FC801CF91C1
:104E60001F910F910C943230CF911F910F910895A3
:104E70001F920F920FB60F921124CF92DF92EF92F2
:104E8000FF920F931F932F933F934F935F936F93D3
:104E90007F938F939F93AF93BF93EF93FF93CF93A2
:104EA000DF93CDB7DEB76C97DEBFCDBF1092E900C0
:104EB0008091E80083FF25C08E010B5E1F4F68E0E4
:104EC000C8010E94AA0982EF8093E8008D89E02E34
:104ED000D12E87FF35C09091E80090FFFCCF982F2E
:104EE000907609F034C19E89911131C0803861F506
:104EF000809175048093F1001092F1008EEF809301
:104F0000E8006C960FB6F894DEBF0FBECDBFDF9100
:104F1000CF91FF91EF91BF91AF919F918F917F9131
:104F20006F915F914F913F912F911F910F91FF9042
:104F3000EF90DF90CF900F900FBE0F901F901895BD
:104F40009EEF9093E800CBCF1092F100D5CF2F8940
:104F5000388D913059F48111D1CF2130310571F65E
:104F6000809175048D7F80937504C8CF933049F488
:104F70008111C4CF2130310509F68091750482601A
:104F8000F2CF953049F48091E80080FFFCCF8F8903
:104F900080688093E300B2CF963009F0A9C0F88C06
:104FA0000B8D1C8D22E01092E90010926504109286
:104FB0006404F2122EC010926304109262040E94E4
:104FC000480E1F8299E09983FA8291E09E8390EACD
:104FD00098879AEF99872091640430916504275F40
:104FE0003F4F3C832B838D831092E9001092650420
:104FF00010926404109363040093620449E050E04B
:10500000BE016F5F7F4F80E00E942A0E0E94480E13
:1050100075CF10936304009362040E949609DC012B
:1050200012960D911C910115110509F43AC1D80190
:10503000ED91FC910480F581E02D6E2D7D2DC80150
:105040000995009709F028C1F80100851185EBCF7B
:10505000F3E0FF120EC08F89882309F440C082302C
:1050600061F440E86CE080E098E00E94E50981117D
:1050700045CF81E28093EB0044CF813029F440E8B2
:105080006BE084EF97E0F1CF833099F70E949609A7
:10509000DC011296ED90FC908E010F5F1F4F6801AE
:1050A000E114F10479F0D701ED91FC910680F781CC
:1050B000E02DB801C7010995080F111DF701E08423
:1050C000F184EECFD8011C92F60101900020E9F79F
:1050D0003197BF016C197D0940E0C601C6CF6EED66
:1050E00077E0FB01449150E080E80E942A0E06CF51
:1050F000973009F4BECF983021F481E08093F1001D
:10510000FDCE993009F0FACE837009F0B2CFE3E317
:10511000F1E081E031E096E32191211109C08EE7B1
:105120008093EA001092EA008F8980937604E6CE9D
:105130008093E9003093EB00DF0111972C912093CD
:10514000EC009093ED008F5F873031F7E8CF8B8DC7
:105150009C8D1092E9001092650410926404909363
:10516000630480936204898D81117DC08E899D893D
:10517000913A49F4813209F07CCF47E050E064E095
:1051800071E080E0B2CF913209F073CF833269F4DD
:105190008F89988DB0E0A0E0809300019093010189
:1051A000A0930201B0930301A9CE803209F07FC021
:1051B0008091E80082FFFCCF67E084E091E00E94EC
:1051C000AA098BEF8093E80080917304EEEFFAE078
:1051D000811102C0E0E0F8E08091040190910501A6
:1051E000A0910601B0910701803B9440A105B10553
:1051F000B9F480910B0180FD13C0EE3F8AE0F807FF
:1052000021F587E797E79183808388E19BE00FB6DC
:10521000F894A895809360000FBE909360006ECEC6
:105220000FB6F894A8958091600088618093600023
:10523000109260000FBEA895EE3FAAE0FA0761F455
:105240001092FF0A1092FE0A59CE808191819093AC
:10525000FF0A8093FE0AD5CF8091FE0A9091FF0A43
:10526000918380834BCE0E949609FC0102811381B9
:105270000115110509F4FDCED801ED91FC910190C5
:10528000F081E02D6E2D7D2DC8010995811136CE5E
:10529000F80100851185ECCF181619060CF42ECEF6
:1052A000E8CEF1E0FF12D4CE62EE77E01ACF823280
:1052B00009F024CE8F8980930B0186CF1F921FB6F1
:1052C0001F9211248F939F938091E1009091E100B0
:1052D000937F9093E10083FF0FC01092E90091E06B
:1052E0009093EB001092EC0092E39093ED001092FB
:1052F000760498E09093F00082FF22C093E09093B0
:10530000E9009091F200992319F09AE39093E80054
:1053100090916104992341F0909161049150909390
:105320006104911101C05D9A90916604992341F046
:1053300090916604915090936604911101C0289A4F
:1053400084FF17C08091E2008E7E81608093E2002E
:105350008091E1008F7E8093E100809174048E7EC5
:105360008061809374049F918F911F901FBE1F9046
:10537000189580FFF8CF8091E2008E7E8061809347
:10538000E2008091E1008E7E8093E10080917404C0
:105390008E7E8160E6CF1F921FB61F9211242F933D
:1053A0003F938F939F93AF93BF9380917704909196
:1053B0007804A0917904B0917A043091600423E0DC
:1053C000230F2D3750F50196A11DB11D20936004C8
:1053D0008093770490937804A0937904B0937A042F
:1053E00080915C0490915D04A0915E04B0915F0493
:1053F0000196A11DB11D80935C0490935D04A09360
:105400005E04B0935F04BF91AF919F918F913F91E4
:105410002F911F901FBE1F90189526E8230F02960C
:10542000A11DB11DD3CFCDB7DEB7A6970FB6F894A7
:10543000DEBF0FBECDBF789484B5826084BD84B5D5
:10544000816084BD85B5826085BD85B5816085BD7F
:1054500080916E00816080936E0010928100809137
:1054600081008260809381008091810081608093BF
:105470008100809180008160809380008091910004
:10548000826080939100809191008160809391006F
:10549000809190008160809390008091C100846031
:1054A0008093C1008091C10082608093C10080918F
:1054B000C10081608093C1008091C30081608093AE
:1054C000C3008091C00082608093C0008091C200C0
:1054D00081608093C20080917A00846080937A001A
:1054E00080917A00826080937A0080917A00816056
:1054F00080937A0080917A00806880937A0010927D
:10550000760410927504109274048091D700816023
:105510008093D70080EA8093D80089B5806189BDE7
:1055200089B5826089BD09B400FEFDCF61E070E0FD
:1055300080E090E00E94480A8091D8008F7C8061D2
:105540008093D8008091E000807F8093E00080917C
:10555000E1008E7E8093E1008DE08093E200559A19
:10556000209AEEEFFFE7859194918B3F9C4D19F4C3
:1055700081E08093730481EC80937C0085B1806F1F
:1055800085B984B1877E84B984B1876E84B95E9A07
:105590005F988AB1806D8AB9769A6E9881B3806F70
:1055A00081BB899880B38D7080BB80E58CBD81E024
:1055B0008DBD85E090E00E948E0A5F9A85E090E0C4
:1055C0000E948E0A5E985C98EFE4F8E084918EBDAC
:1055D00000000DB407FEFDCF319638E0EC35F3073F
:1055E000A9F75C9A81E880936400809165008160EE
:1055F0008093650080E00E941B0E0E948E0902E0ED
:1056000010E087FF31C05C9885EA8EBD00000DB4C4
:1056100007FEFDCF5C9A2E982F982D9880916400FC
:1056200080628093640081E083BF889513BEFCCFC5
:105630002D9A88EC90E00E948E0A2F981A83098395
:105640006FEFCE0101960E94212784EF91E00E9426
:105650008E0A2F9A0E948E0984788438D9F30EC05E
:1056600088EC90E00E948E0A0E948E0982FF23C07F
:105670002D980E948E0984788438D1F20E948E0978
:105680008471843169F72D9A88EC90E00E948E0A2B
:105690002E981A83098360E0CE0101960E9421278B
:1056A00084EF91E00E948E0A2E9A0E948E098471E6
:1056B0008431D9F3D5CF2D9A82E090E00E942A3030
:1056C000882309F47AC03E9A3F9A81E090E00E94D4
:1056D0002A30182F81E090E00E942A3081FF0EC00E
:1056E000412F4470F42E12FD2E9800EF1FEF0E9400
:1056F0008E0986FF65C02E9A2F9A2D9A82E390E03C
:105700000E948E0A0E948E098111F8CF83E0809357
:10571000D40480E19CE1A0E0B0E08093C1049093C8
:10572000C204A093C304B093C40480E190E00E943B
:105730002A30182F81E190E00E942A30982F91237F
:105740009F3F09F465C0912F90939B0480939A0426
:10575000AE014F5F5F4F9E012B5E3F4FCE014096E3
:105760006AE0462E512C612C712C142FF52E2CA39F
:105770003DA38EA3D92E40E1242E312C8FB7F8946F
:1057800040917704509178046091790470917A0483
:105790008FBF8091D504942F981B892F9091D604A8
:1057A0009923C9F18093D7041092D60480E090E049
:1057B000892B21F30E940000DECF3E983F9885CFD1
:1057C000FF2029F00430110511F42E9A2F9881E062
:1057D0000E941B0EC8010E94DF0780E00E941B0E82
:1057E0008FE090E00E948E0A0F5F1F4F0931110574
:1057F00009F07DCFFF2011F02F9A2D9880E991E0DC
:105800000E948E0A2D9A89EC94E00E94790E76CF40
:1058100090E080E099CF9091D404891740F48F5F95
:10582000891720F681E083BF889513BEBFCF81E042
:105830008093D6044093D5048091D0049091D104F4
:1058400001969093D1048093D0040E94150A6C8F26
:105850007D8F8E8F9F8F8091C5049091C604AC8DF3
:10586000BD8DA81BB90B2091C1043091C204A217B1
:10587000B30758F30E94150A6093C5047093C604D9
:105880008093C7049093C80480E00E941B0E00918F
:10589000C00401111CC0802FE0EEF4E081118FEFF5
:1058A000002481938193819381930394D1F7109283
:1058B000DB041092DA041092D9041092D80480917B
:1058C000D2048093D3040E948E098093D2048091E5
:1058D000BF04813009F47EC2823009F403C2811111
:1058E0008AC1011192C18090B7049090B804A09031
:1058F000B904B090BA04B3E38B169104A104B104C7
:1059000008F45DC0D501C401B695A7959795879514
:105910009C01AD0121703327442755272C8F3D8FE3
:105920004E8F5F8F00919704D501C40162E0B69558
:10593000A795979587956A95D1F781709927AA279A
:10594000BB27281B390B4A0B5B0BA02FB0E00E9432
:10595000403068A379A38AA39BA3DC01CB01B69551
:10596000A79597958795FC01789631E08322992435
:10597000AA24BB24A50194018C8D9D8DAE8DBF8D75
:10598000281B390B4A0B5B0BA02FB0E00E94403064
:105990006C8F7D8F8E8F9F8FDC01CB01B695A79585
:1059A000979587958E962AEFC22E32E1E32E0AE173
:1059B00030E020E041E659E0BF010E94090B8091F0
:1059C000C004811118C10E948E0983FFBBC001E091
:1059D0000093BF04A0EBA093C104B2E1B093C20452
:1059E0001092C3041092C4041092B7041092B80429
:1059F0001092B9041092BA0410929904109298046B
:105A000062E070E0812F9F2D0E941A0F20E431E0A8
:105A100030939604209395040E941F0F8093940462
:105A200065E070E08CA19DA10E941A0F62E070E019
:105A3000812F9F2D0E941A0F40E55DEF5F8B4E8BEB
:105A4000398E288E1D8A85E0ECA1FDA1ABE7B4E07C
:105A500001900D928A95E1F765E070E08EA19D2D91
:105A60000E941A0F62E070E0812F9F2D0E941A0F92
:105A700080EC9EEF9A8B898B84E190E09C8B8B8BE2
:105A8000188A85E0EEA1FD2DA0E8B4E001900D920A
:105A90008A95E1F765E070E0CE010B960E941A0F3F
:105AA00062E070E0812F9F2D0E941A0F1D861C86D8
:105AB0008EE190E09F878E871B8685E0FE013B96F6
:105AC000A5E8B4E001900D928A95E1F765E070E0F9
:105AD000CE0106960E941A0F62E070E0812F9F2D82
