:100000000C9470060C9498060C9498060C94980620
:100010000C9498060C9498060C9498060C949806E8
:100020000C9498060C9498060C9495250C946F23C8
:100030000C9498060C9498060C9498060C949806C8
:100040000C9498060C9498060C9498060C949806B8
:100050000C9498060C9498060C9498060C9402261E
:100060000C9498060C9498060C9498060C94980698
:100070000C9498060C9498060C9498060C94980688
:100080000C9498060C9498060C9498060C94980678
:100090000C9498060C9498060C9498060C94980668
:1000A0000C9498060C9498060C9498060F0F0F0F5A
:1000B000080400303C3C3E3C0F0F0F0F00000020B6
:1000C000383C3C380002010001020000000300003F
:1000D0000F0F0F0F0C0030303C3E3E3F3F212D2DC7
:1000E000213F8080808080808080808080808080B0
:1000F000808080808080808080808080808080C0C0
:10010000C0C0C0C0E0E0E0E080808080808080806F
:1001100080808080808080808080C0C0C0C0C0C05F
:10012000C0C0C0E0E0E0E0E0E0E0E0E0F0F0F0F0EF
:10013000F0F0F0F0F080808080808080808080808F
:1001400080808080808080808080808080808080AF
:10015000808080808080808080808080808080809F
:10016000808080808080808080808080808080808F
:1001700080808080808080808080E0E0E0E08080FF
:10018000E0E0E0E0C0C0808080808080808080806F
:1001900080808080808080808080808080808000DF
:1001A0000040410101414141410101010181818141
:1001B000808080808080808080808080808080803F
:1001C0008080C0C0C0C08080E0E0E0E08080F0F0CF
:1001D000F0F0F08080FCFCFCFC8080F0F0F0F0F0AF
:1001E0008080E0E0E0E08080C0C0C0C0808080808F
:1001F00080808080808080808080808080808080FF
:10020000808080808080808080E38080808080808B
:100210008080808080C3808080808080808080809B
:10022000C38080808080808080808080E380808028
:1002300080808080808080808080808080808080BE
:1002400080808080C0C0C0C0C0E0E0F0F0F0F0F07E
:10025000F08080808183878F9F9F808080808080D6
:100260008080808080808080C0C0C0C0C0C080800E
:100270008080808080808080808080808080E0801E
:10028000808080808080808080808080808080806E
:1002900080808080808080808080C0C0C0C0C0C0DE
:1002A000C0C0C0E0E0E0E0E0E0E0E0E0F0F0F0F06E
:1002B000F0F0F0F0F080808080808080808080800E
:1002C000808080808080808080E0E0E0E0E0E0F876
:1002D000F8F8F8F8F8FEFEFEFEFEFE80808080E171
:1002E000E1E180808080808080808080808080C00C
:1002F000C0C0C0C0E0E0E0E0E0F0F0F0F08080805E
:10030000808888888C8C8C80808080C3C3C3C380A5
:1003100080808080808080808080808080808080DD
:1003200080808080808080808080808080808080CD
:1003300080808080808080808080808080808080BD
:1003400080808080808080808080808080808080AD
:10035000808080808080808080808080808080FF1E
:1003600038445241211EB409B1095D095809940B62
:1003700010096D0B86084E0D310810080E035B0046
:10038000D007380A9A0C00300C030C301E111D11D6
:100390001C11DB10DA10D510D4108D108C108710C2
:1003A000861080107F107A107910731072106D1003
:1003B0006C10C00DB50D021001109E0F9D0F990F0E
:1003C000980F970F780F770F760F750F710F700FCB
:1003D000340F330F2E0F2D0F250F240F230F1F0F58
:1003E0001E0F1D0F0080D8FCFEFEFC7E7FFFFFFE6F
:1003F000FCF0E00083C783FFFF00000000FF000166
:1004000001000001070107070000000007000000CD
:10041000000080D8FCFEFEFC7E7FFFFFFEFCF0E0CB
:100420000083C783FFFF80808080FF80E1C1800060
:100430000107010707000703030703070101F21083
:100440005F10DE0F3A0D3E0F003C7C7E7D3C2D0799
:100450002A07480E3F0E8B067E06F508110B0D0687
:100460005B08AA05F907EB0C660A6105280A00007B
:10047000C0F0F8FCFC7C7CFCF8F0C000008003833A
:1004800003FFFF00000000FF030303000207020058
:1004900007070000000007000000000000C0F0F89F
:1004A000FCFC7C7CFCF8F0C0000080038303FFFFB1
:1004B00020F0B020FF532B53200207020007070053
:1004C0000707010700000000081157101910B30AB0
:1004D0008700290F1C224949221CD3093B0C380CE8
:1004E000B10B250E1E0ED008C408B908AD08EE0ADF
:1004F000EB0AB80A1D0D140D110D0000000000805C
:10050000F86868800000000000F020F020FFFF0085
:10051000000000FF20F020F007020702070700009C
:1005200000000702070207000000000080F868686A
:10053000800000000000F020F020FF2FF020F020CD
:10054000FF20F020F0070207020702070207020758
:1005500002070207FD100604C50F2C080403090456
:1005600012010002EF0201404123868000010102D6
:10057000030141726475696E6F204C4C4300555302
:100580004220494F20426F61726400080B00020252
:10059000020100090400000102020000052400100D
:1005A00001052401010104240206052406000107B7
:1005B00005810310004009040100020A0000000741
:1005C00005020240000007058302400000D5F08DBF
:1005D00014A1C881CFD9F1AF200080E0F8FE9F8E32
:1005E0005E3C1808E6E0707000F0F0F00080E080FB
:1005F00070F080F0F080E0F838C0F0B06060F4E6B1
:1006000004E0E0C00080C04000C0FCFC61717BF7EA
:10061000F3FF7F1F03010F1F3838001F1F1F063F06
:100620003F3F001F1F03031F1F011E1F1F191B1821
:1006300007031C1F03073E3F1F00307337010000F4
:1006400000000001000000000000000000000000A9
:10065000000000000000000000000000000000009A
:10066000000000000000000000000000000000008A
:100670000CFEFFFC181CBCF8F83C1CBCFCF810007D
:10068000E0E0E0C00030F0F0E08000E0E000F0F0FA
:10069000E0C0F0F8F800FFFFFF8000FFFFFF000060
:1006A000FFFFFF383F1F1B1B1F3F3C3F1F03071E61
:1006B0003F3F001F1F01030707070001030101005F
:1006C000030703030003070301000000000000000C
:1006D0000000000000000000000000000000000C0E
:1006E0001EFEFCFC8C9FDEFCBC1800008CFCF0FCA9
:1006F000CC0000F0F07060C0C00000003FFFFFE1E0
:10070000930F0F07121E3F0F0D0F0F3F3C7F7F0708
:100710000F3F39000000000103030100000000004A
:1007200000000000000000000000000000000000C9
:1007300000003E5B4F5B3E3E6B4F6B3E1C3E7C3E83
:100740001C183C7E3C181C577D571C1C5E7F5E1C91
:1007500000183C1800FFE7C3E7FF0018241800FF4B
:10076000E7DBE7FF30483A060E2629792926407F45
:10077000050507407F05253F5A3CE73C5A7F3E1C54
:100780001C08081C1C3E7F14227F22145F5F005F40
:100790005F06097F017F006689956A60606060601E
:1007A00094A2FFA29408047E040810207E20100862
:1007B000082A1C08081C2A08081E101010100C1EFD
:1007C0000C1E0C30383E3830060E3E0E060000007F
:1007D000000000005F00000007000700147F147F86
:1007E00014242A7F2A1223130864623649562050A3
:1007F0000008070300001C2241000041221C002ABF
:100800001C7F1C2A08083E08080080703000080879
:10081000080808000060600020100804023E5149EA
:10082000453E00427F400072494949462141494DB9
:10083000331814127F1027454545393C4A49493140
:1008400041211109073649494936464949291E00BF
:100850000014000000403400000008142241141469
:10086000141414004122140802015909063E415D86
:10087000594E7C1211127C7F494949363E41414113
:10088000227F4141413E7F494949417F0909090190
:100890003E414151737F0808087F00417F4100209D
:1008A00040413F017F081422417F404040407F0289
:1008B0001C027F7F0408107F3E4141413E7F0909B1
:1008C00009063E4151215E7F0919294626494949B9
:1008D0003203017F01033F4040403F1F2040201F63
:1008E0003F4038403F6314081463030478040361F5
:1008F00059494D43007F4141410204081020004105
:1009000041417F040201020440404040400003078F
:10091000080020545478407F2844443838444444E4
:1009200028384444287F385454541800087E09025B
:1009300018A4A49C787F0804047800447D4000201B
:1009400040403D007F1028440000417F40007C046F
:100950007804787C080404783844444438FC18242B
:10096000241818242418FC7C0804040848545454FF
:100970002404043F44243C4040207C1C2040201C94
:100980003C4030403C44281028444C9090907C449B
:1009900064544C44000836410000007700000041D8
:1009A00036080002010204023C2623263C1EA1A1B7
:1009B00061123A4040207A3854545559215555799E
:1009C0004121545478412155547840205455794060
:1009D0000C1E5272123955555559395454545939BF
:1009E000555454580000457C410002457D420001A9
:1009F000457C40F0292429F0F0282528F07C545526
:100A000045002054547C547C0A097F4932494949A5
:100A1000323248484832324A4848303A4141217AD5
:100A20003A42402078009DA0A07D39444444393D9D
:100A30004040403D3C24FF2424487E4943662B2F00
:100A4000FC2F2BFF0929F620C0887E09032054546F
:100A500079410000447D413048484A3238404022C4
:100A60007A007A0A0A727D0D19317D2629292F28EC
:100A7000262929292630484D40203808080808082A
:100A8000080808382F10C8ACBA2F102834FA000014
:100A90007B000008142A142222142A14089500222C
:100AA0000095AA005500AAAA55AA55AA000000FF61
:100AB00000101010FF00141414FF001010FF00FFAE
:100AC0001010F010F0141414FC001414F700FF00C0
:100AD00000FF00FF1414F404FC141417101F10106E
:100AE0001F101F1414141F00101010F0000000003D
:100AF0001F101010101F10101010F010000000FF39
:100B0000101010101010101010FF10000000FF1433
:100B10000000FF00FF00001F10170000FC04F41489
:100B2000141710171414F404F40000FF00F7141441
:100B30001414141414F700F7141414171410101FBD
:100B4000101F141414F4141010F010F000001F10F3
:100B50001F0000001F14000000FC140000F010F043
:100B60001010FF10FF141414FF141010101F0000B9
:100B70000000F010FFFFFFFFFFF0F0F0F0F0FFFFCC
:100B8000FF0000000000FFFF0F0F0F0F0F3844445D
:100B900038447C2A2A3E147E02020606027E027E29
:100BA0000263554941633844443C04407E201E2082
:100BB00006027E020299A5E7A5991C2A492A1C4C27
:100BC0007201724C304A4D4D303048784830BC622A
:100BD0005A463D3E494949007E0101017E2A2A2AA2
:100BE0002A2A44445F444440514A444040444A51C4
:100BF000400000FF0103E080FF000008086B6B0865
:100C00003612362436060F090F06000018180000A9
:100C1000001010003040FF0101001F01011E0019EB
:100C20001D1712003C3C3C3C0000000000F0F89C0A
:100C30008E8783878E9CF8F00000FEFF030303037A
:100C400003070EFCF80000FEFF0303030303070E77
:100C5000FCF80000FFFF00000000000000FFFF00A4
:100C600000FEFF8383838383C7EE7C380000F8FC9B
:100C70000E07030303070EFCF800003F7FE0C0806F
:100C800080C0E07F3FFFFF01010101010101FFFF83
:100C90000000FFFF0C0C0C0C1C3E77E3C100007F32
:100CA000FFC0C0C0C0C0E0703F1F00001F3F70E029
:100CB000C0C0C0E0703F1F00007FFFC1C1C1C1C103
:100CC000E3773E1C00001F3F70E0C0C0C0E0703FF3
:100CD0001F000000000001FFFF0100000000A62B24
:100CE00011241FBECFEFDAE0DEBFCDBF28E0A0E5C4
:100CF000B1E001C01D92A73CB207E1F711E0A0E00E
:100D0000B1E0E0ECF8E502C005900D92A035B10726
:100D1000D9F716E0C0E7D6E004C02197FE010E9493
:100D2000FF2BCF36D107C9F70E944A260C945E2CC0
:100D30000C94000090E080E008950895AF92BF9277
:100D4000CF92DF92EF92FF920F931F93CF93DF9397
:100D50009C01409680359105B0F5A90137FF04C08C
:100D600044275527421B530B47705527C90137FDB0
:100D7000079663E0959587956A95E1F737FF07C079
:100D8000019728E030E0B901641B750BAB01EC0161
:100D9000D695DC2FCC27D795C79570E060E028E08A
:100DA00030E06901C41AD50A8F3FEFEF9E07B4F413
:100DB0000196685A7F4FC058DF4F603B710519F0AC
:100DC0008830910589F7DF91CF911F910F91FF90A6
:100DD000EF90DF90CF90BF90AF9008959B01235D7F
:100DE000334F59018E01055A1A4FDE01A953BB4FEB
:100DF000F12CE12C8F3F980779F1F5012491042E15
:100E000001C0220F0A94EAF754963C915497232B81
:100E100054962C9354974115510581F087309105D4
:100E200069F0F501249130E00C2C02C0359527952E
:100E30000A94E2F7F8013081232B2083FFEFEF1AA9
:100E4000FF0A2FEFA21AB20A0F5F1F4F119638E563
:100E5000E316F10479F6ACCF4115510579F3E1CFF2
:100E600008959C01CB0120383105B8F46034710538
:100E7000A0F450E131E081FD34E080FD330F82FDCC
:100E80003295887F589FD0011124A20FA953BB4FE0
:100E90008C9140FF03C0832B8C930895309583235E
:100EA000FBCF2F923F924F925F926F927F928F92E1
:100EB0009F92AF92BF92CF92DF92EF92FF920F93E9
:100EC0001F93CF93DF93CDB7DEB728970FB6F89473
:100ED000DEBF0FBECDBF8F8398876A3069F5AF81C3
:100EE000B88555968C91B8E08B9F90011124EF81C5
:100EF000F88581899289820F931F928B818B108A4A
:100F0000178681E090E028960FB6F894DEBF0FBEFA
:100F1000CDBFDF91CF911F910F91FF90EF90DF90A8
:100F2000CF90BF90AF909F908F907F906F905F9089
:100F30004F903F902F9008956D3019F3AF81B88591
:100F40001F960D911C910038110574F1EF81F88501
:100F50002589422F50E087859089F6E02F9F800DEC
:100F6000911D1124AF81B88550969C938E931F9745
:100F700056962C91222329F26AEF64039001659F13
:100F8000300D112420583F4F281739070CF0B9CFE6
:100F9000AF81B885ED91FC9111970190F081E02D22
:100FA0006AE0CD010995ADCFEF81F885618872883F
:100FB000F0E46F16710454F6AF81B88555962C9005
:100FC00025E0C801229E800D911D112418161906D6
:100FD0000CF0BCCF422C512CB8E02B9EC001112448
:100FE000860D971D181619060CF0B0CFEF81F88505
:100FF000F489FB83AF81B8855396BC91BC83629F13
:10100000B0011124FB01E35DF84FFE83ED83F12C69
:10101000E12CED81FE81EE0DFF1D3490F5E0EF1225
:1010200001C0312C530138E03A8330FC1CC08B8165
:101030008983A981A11104C0BB81EC81BE17D1F0C5
:1010400068018C2D801B8215A8F44501882D8A1912
:10105000821560F44981B401C6010E943107FFEF97
:101060008F1A9F0AF3CF9C819983E3CF3FEFC31A76
:10107000D30AE7CF36948A8181508A83A40CB51CA9
:101080008111D3CF9FEFE91AF90A040D151DA6E0CF
:10109000EA16F10409F0BDCF59CF8FB18095807F5A
:1010A000669B88601C9B8460089580916B0481110D
:1010B0000DC082E08093670484E0809368041092FE
:1010C0006A041092690481E080936B0487E694E0DF
:1010D0000895615030F0FC018091F1008193CF01BF
:1010E000F8CF289884E680936604089540916404BC
:1010F00050916504209162043091630442175307B4
:10110000B4F49091E8009570E1F39091E80092FDBD
:1011100019C08093F1008091640490916504019658
:101120008F739927892B19F48EEF8093E8008091B3
:10113000640490916504019690936504809364041F
:1011400081E0089580E00895EF92FF920F931F933E
:10115000CF93DF937C01162F042F81E0860F880F39
:101160000E94760883E00E947608E701E10EF11CF8
:10117000CE15DF05B9F007FF13C0FE0184910E9470
:101180007608182F80E00E9476088123219681112D
:10119000EFCFDF91CF911F910F91FF90EF900895C6
:1011A0008881EDCF81E0F5CFCF93DF9300D000D0E1
:1011B000CDB7DEB73FB7F89480915C0490915D04A1
:1011C000A0915E04B0915F0426B5A89B05C02F3F97
:1011D00019F00196A11DB11D3FBFBA2FA92F982F5D
:1011E0008827820F911DA11DB11D9C01AD0162E0F8
:1011F000220F331F441F551F6A95D1F7CA01B90149
:101200000F900F900F900F90DF91CF9108958F92D4
:101210009F92AF92BF92CF92DF92EF92FF92CF93C5
:10122000DF9300D000D0CDB7DEB76B017C010E9408
:10123000D4084B015C01C114D104E104F104F1F0C4
:101240000E94D408DC01CB0188199909AA09BB09BD
:10125000883E9340A105B10570F381E0C81AD1081A
:10126000E108F10828EE820E23E0921EA11CB11CB9
:10127000C114D104E104F10419F7DDCF0F900F90F0
:101280000F900F90DF91CF91FF90EF90DF90CF9074
:10129000BF90AF909F908F900895CF93DF9300D031
:1012A00000D0CDB7DEB79C0150E040E029833A83FF
:1012B0004B835C83CA01B9010F900F900F900F9080
:1012C000DF91CF910C940709FC018485958597FDEA
:1012D0000BC09FB7F89482E08093E9008091F20000
:1012E0009FBF90E0019608959FB7F89482E08093A5
:1012F000E9008091F2009FBF90E0089583E0809321
:10130000E9008091F200882319F08AE38093E800D5
:101310000895CF93DF930F92CDB7DEB7DC016983D9
:10132000ED91FC910280F381E02D41E050E0BE019F
:101330006F5F7F4F09950F90DF91CF910895CF9206
:10134000DF92EF92FF920F931F93CF93DF937C0175
:101350006A0110E000E00C151D0581F0EB01D701DA
:10136000ED91FC910190F081E02D6991C701099503
:10137000892B21F00F5F1F4FBE01EDCFC801DF9118
:10138000CF911F910F91FF90EF90DF90CF90089534
:10139000009739F03CF4079624E0959587952A95B7
:1013A000E1F708950896F8CF9C01283E83E03807BE
:1013B00048F42436310570F42A30310570F481E0A8
:1013C00090E00895285E33402832334248F085E0AB
:1013D00090E0089583E090E0089582E090E0089521
:1013E00084E090E00895CF92DF92EF92FF920F9306
:1013F0001F93CF93DF936C017B01C091A204D09126
:10140000A30404E610E0CE01B8010E94D72B37E018
:10141000389FF001399FF00D1124E056FE4F1082E5
:1014200084E0CC0CDD1C8A95E1F7D282C18294E085
:10143000EE0CFF1C9A95E1F7F482E3824583268344
:10144000CE0101969093A3048093A2042091A4045A
:101450003091A504B8010E94D72BFC01C901B80145
:101460000E94D72BE817F90731F42F5F3F4F3093D5
:10147000A5042093A404DF91CF911F910F91FF90B9
:10148000EF90DF90CF9008952FB7F89483E080938A
:10149000E9009091E800892F807295FF04C0909137
:1014A000F20080E4891B2FBF08950E94440A90E057
:1014B00008958F929F92AF92BF92CF92DF92EF9258
:1014C000FF920F931F93CF93DF937C018B01EA016F
:1014D00080910B01882309F465C0809176048823EC
:1014E00009F460C08091740480FF05C08091E00021
:1014F00082608093E0006E01B12C8AEFA82E93E009
:10150000892E2AE3922EC114D10419F4BB2009F4C8
:1015100042C00E94440A81110BC0AA94AA2009F477
:1015200041C061E070E080E090E00E940709EBCFED
:101530008C151D0411F00CF08C2D9FB7F89480923F
:10154000E9002091E80025FD02C09FBFDCCF282FD5
:1015500030E0C21AD30A502F412F815040F0E52FBE
:10156000F42F41914093F1005E2F4F2FF6CF020FE1
:10157000131FBB2021F09092E800B12CE6CF8091A0
:10158000E80085FDE2CF9092E800BB24B394C1143B
:10159000D104D9F2F2CF5D9884E6809361041C16E1
:1015A0001D063CF081E090E0F70193838283D0E058
:1015B000C0E0CE01DF91CF911F910F91FF90EF908E
:1015C000DF90CF90BF90AF909F908F9008959091B3
:1015D0007604911103C08FEF9FEF08954FB7F894F1
:1015E00092E09093E9009091F200292F30E0992346
:1015F00011F021E030E0232B31F0289884E680932D
:1016000066048091F100992339F02091F2002111B4
:1016100003C02BE62093E8004FBF9923E1F290E04E
:101620000895CF93DF93EC018C859D8597FF04C0CF
:101630000E94E70A9D878C878C859D85DF91CF91DD
:101640000895FC018485958597FD0C94E70A2FEF9A
:101650003FEF3587248708958F929F92BF92CF9254
:10166000DF92EF92FF920F931F93CF93DF93DC01F2
:10167000FB01EA01D22E902F622F70E08B010A0F3E
:101680001B1F101611060CF096C0A038B1050CF007
:1016900092C0AF01490F511D141615060CF08BC0F6
:1016A000E034F1050CF087C0209709F484C02E2F98
:1016B0002770E22EAF01F7FF02C0495F5F4F23E0C2
:1016C000559547952A95E1F7342FF7FF04C0EE2092
:1016D00011F03FEF340F442755274A1B5B0BB7FD32
:1016E00002C050E040E080E8F82EFA1A00381105F8
:1016F0000CF4FD2CF41A832F87FD819581503F3F18
:101700000CF080E001E0E92FE77009F400E0969525
:1017100096959695090FE02FF0E0E30FF11D37FD48
:10172000FA95399714F008E0031B182F130F20E8DF
:101730001203F0011124AE0FBF1F4D01840E951E40
:10174000DA01D89EA00DB11D1124CD018C0F9D1F73
:101750004E2D0E2C000C550BB02EB30EB11659F1B8
:10176000E401C953DB4FFC012E2F281B2F15E0F499
:10177000249130E0042E02C0220F331F0A94E2F7B6
:1017800017FD03C0D880D22AD882EE2051F017303E
:1017900044F46E01B0E8CB0ED11CD6012C91232B62
:1017A0002C9331962196E0CF1F5F860F971FB0E8EC
:1017B0008B0E911CD3CFDF91CF911F910F91FF9092
:1017C000EF90DF90CF90BF909F908F900895909171
:1017D000BA04982329F49091B904982381E009F47C
:1017E00080E00895E7ECF4E0A0E0B8E000800EBCF3
:1017F0008111012C1197A0FDFDCF0192B9F70DB415
:101800000895FF920F931F93CF93DF93F82EEB0170
:101810008B01040F151FC017D10749F0F7FE0DC04B
:10182000FE0184910E94760821968111F4CFDF9108
:10183000CF911F910F91FF9008958881F3CF0F935F
:101840001F93CF93DF930F92CDB7DEB782E08983EA
:1018500042E450E06BE875E080E80E94010C0E94D1
:101860005508DC0112960D911C910115110589F0A6
:10187000D801ED91FC910280F381E02DBE016F5FF4
:101880007F4FC801099597FD04C0F80100851185B7
:10189000ECCF89810F90DF91CF911F910F91089527
:1018A0000F931F93CF93DF93EC0181E090E00E94B0
:1018B0000C2C80FF2EC08AE090E00E940C2C682F38
:1018C0008FEF860F8E3F28F582E390E0988B8F870D
:1018D00088E390E09A8B898B0BE010E0E881F98136
:1018E0000190F081E02DCE010995C8010E940C2CD9
:1018F000682F0F5F1F4F0131110581F780E00E94B3
:10190000F20B88EE93E0DF91CF911F910F910C9431
:101910004D09DF91CF911F910F91089504970C9479
:10192000500CBC01009761F0FC0101900020E9F728
:101930003197AF01481B590B80EB94E00C949F0941
:1019400008954F925F926F927F92AF92BF92CF9223
:10195000DF92EF92FF920F931F93CF93DF93CDB758
:10196000DEB7A1970FB6F894DEBF0FBECDBF6B01F7
:101970007C0119A25E0181E2A80EB11C8AE0482E0A
:10198000512C612C712CB601C701A30192010E9458
:101990002D2C922F832F86019701C92ED82E7A01E4
:1019A000605DF50162935F010A3011052105310583
:1019B00050F7CF010E94910CA1960FB6F894DEBFAC
:1019C0000FBECDBFDF91CF911F910F91FF90EF9090
:1019D000DF90CF90BF90AF907F906F905F904F90CF
:1019E0000895AB0170E060E00C94052CCF93DF9379
:1019F0000F92CDB7DEB761E070E0CE0101960E9494
:101A0000F10C88EF0F90DF91CF910895CF93DF9382
:101A10000F92CDB7DEB761E070E0CE0101960E9473
:101A2000F10C88E10F90DF91CF910895CF93DF9370
:101A30000F92CDB7DEB761E070E0CE0101960E9453
:101A4000F10C80E00F90DF91CF910895CF93DF9359
:101A50000F92CDB7DEB761E070E0CE0101960E9433
:101A6000F10C83E10F90DF91CF910895CF93DF9335
:101A70000F92CDB7DEB761E070E0CE0101960E9413
:101A8000F10C8EE00F90DF91CF910895CF93DF930B
:101A90000F92CDB7DEB761E070E0CE0101960E94F3
:101AA000F10C87E00F90DF91CF910895CF93DF93F2
:101AB0000F92CDB7DEB761E070E0CE0101960E94D3
:101AC000F10C87E10F90DF91CF910895CF93DF93D1
:101AD0000F92CDB7DEB761E070E0CE0101960E94B3
:101AE000F10C89EF0F90DF91CF910895CF93DF93A1
:101AF0000F92CDB7DEB761E070E0CE0101960E9493
:101B0000F10C8DEE0F90DF91CF910895CF93DF937D
:101B10000F92CDB7DEB761E070E0CE0101960E9472
:101B2000F10C88EE0F90DF91CF910895CF93DF9362
:101B30000F92CDB7DEB761E070E0CE0101960E9452
:101B4000F10C82EF0F90DF91CF910895CF93DF9347
:101B50000F92CDB7DEB761E070E0CE0101960E9432
:101B6000F10C89EE0F90DF91CF910895CF93DF9321
:101B70000F92CDB7DEB761E070E0CE0101960E9412
:101B8000F10C8FE00F90DF91CF910895CF93DF9309
:101B90000F92CDB7DEB761E070E0CE0101960E94F2
:101BA000F10C85E00F90DF91CF910895CF93DF93F3
:101BB0000F92CDB7DEB761E070E0CE0101960E94D2
:101BC000F10C89E00F90DF91CF910895CF93DF93CF
:101BD0000F92CDB7DEB761E070E0CE0101960E94B2
:101BE000F10C8DE00F90DF91CF910895CF93DF93AB
:101BF0000F92CDB7DEB761E070E0CE0101960E9492
:101C0000F10C80E10F90DF91CF910895CF93DF9396
:101C10000F92CDB7DEB761E070E0CE0101960E9471
:101C2000F10C87EF0F90DF91CF910895CF93DF9361
:101C30000F92CDB7DEB761E070E0CE0101960E9451
:101C4000F10C81EF0F90DF91CF910895CF93DF9347
:101C50000F92CDB7DEB761E070E0CE0101960E9431
:101C6000F10C8BEF0F90DF91CF910895CF93DF931D
:101C70000F92CDB7DEB761E070E0CE0101960E9411
:101C8000F10C83EF0F90DF91CF910895CF93DF9305
:101C90000F92CDB7DEB761E070E0CE0101960E94F1
:101CA000F10C80EF0F90DF91CF910895CF93DF93E8
:101CB0000F92CDB7DEB761E070E0CE0101960E94D1
:101CC000F10C88E00F90DF91CF910895CF93DF93CF
:101CD0000F92CDB7DEB761E070E0CE0101960E94B1
:101CE000F10C82E00F90DF91CF910895CF93DF93B5
:101CF0000F92CDB7DEB761E070E0CE0101960E9491
:101D0000F10C86E00F90DF91CF910895CF93DF9390
:101D10000F92CDB7DEB761E070E0CE0101960E9470
:101D2000F10C8EEF0F90DF91CF910895CF93DF9359
:101D30000F92CDB7DEB761E070E0CE0101960E9450
:101D4000F10C8AEF0F90DF91CF910895CF93DF933D
:101D50000F92CDB7DEB761E070E0CE0101960E9430
:101D6000F10C80E00F90DF91CF9108950F931F93B6
:101D7000CF93DF9300D0CDB7DEB7082F162F61E0E9
:101D800070E0CE0101960E94F10C61E070E0CE019E
:101D900002960E94F10C802F810F0F900F90DF911F
:101DA000CF911F910F910895FF920F931F93CF939F
:101DB000DF9300D000D0CDB7DEB78C01F62E62E005
:101DC00070E0CE0101960E94F10C62E070E0CE015D
:101DD00003960E94F10CC8018F0D911DF7FC9A9596
:101DE0000F900F900F900F90DF91CF911F910F9157
:101DF000FF9008952F923F924F925F926F927F9241
:101E00008F929F92AF92BF92CF92DF92EF92FF920A
:101E10000F931F93CF93DF93CDB7DEB7E1970FB644
:101E2000F894DEBF0FBECDBFE0907F04F090800439
:101E3000C7010E94D4098C01809181049091820491
:101E40000E94D409080F191F0D5F1F4F25E0209F26
:101E5000C001219F900D112497FD019695958795BE
:101E6000919581959109805C9F4F9093C0048093D8
:101E7000BF0489E090E09093C2048093C10430E0F5
:101E800020E0C901B7010E94A10C89E391E00E9402
:101E9000910C80918104909182049C0150E040E07B
:101EA0002B873C874D875E87CA01B9010E94A10C30
:101EB0008CE391E00E94910C8091A604823009F499
:101EC000CDC080917C0490917D040E94C8095C0182
:101ED00065E370E01B01281A390A40909E04509077
:101EE0009F046090A0047090A10473016201E2E07D
:101EF000F694E794D794C794EA95D1F7460131E078
:101F000083229924D301C2010297A109B109F2E009
:101F1000B695A79597958795FA95D1F7AC0141703D
:101F200055275C8F4B8F10919D04D301C201B6954C
:101F3000A7959795879581709927AA27BB2751E088
:101F40004522552466247724481A590A6A0A7B0ACE
:101F5000A7019601217033274427552729A33AA3C7
:101F60004BA35CA36C017D01C21AD30AE40AF50AF3
:101F7000113009F069C0E0917E04AE2FB0E0A301FA
:101F800092010E94222CDC01CB01B695A795979572
:101F900087958B879C87AD87BE87AE2FB0E0A70162
:101FA00096010E94222C9B01AC01569547953795CE
:101FB00027952D8F3E8F4F8F58A3B1014B8D5C8D90
:101FC000641B750B620F731F8B859C8582599F4F15
:101FD00006E026E046ED50E00E942C0B6CE370E03A
:101FE0006A197B09681979098D8D9E8D680F791F93
:101FF0008B859C8580599F4F04E026E040ED50E0A2
:102000000E942C0B8AEC90E09A83898384EC90E008
:102010009C838B83E9A1FAA1EE0FFF1FEC0FFD1F3C
:102020004181528160E470E06A197B09681979097D
:10203000AD8DBE8D6A0F7B1F8B859C8581599F4F0F
:1020400002E026E00E942C0B8091A704882331F047
:10205000112309F4B4C0823008F012C166E070E0C8
:10206000CE0101960E94F10C80917C0490917D0438
:102070000E94C809C0909E04D0909F04E090A004E4
:10208000F090A104CB86DC86ED86FE86B701A60122
:1020900022E076956795579547952A95D1F725E3E0
:1020A00030E0281B390BD701C6010297A109B109FD
:1020B000E2E0B695A79597958795EA95D1F7817057
:1020C00099271901281A390ACA01817099279DE0B8
:1020D000981B9B8FD090A704D9A68B859C85AD8536
:1020E000BE85B695A7959795879581709927AA275C
:1020F000BB270B851C852D853E8501701127222766
:10210000332768017901C81AD90AEA0AFB0ACD8E79
:10211000DE8EEF8EF8A241705527662777277C0167
:102120008D01E41AF50A060B170BE9A2FAA20BA31C
:102130001CA3F9A4FF2011F40C94B91860909B041F
:1021400070909C042301D12CC12C84EF882E8EE04A
:10215000982EA12CB12CEB84FC840D851E858E1845
:102160009F08A00AB10AEB8CE20CF32CF11CF88E4C
:10217000EF8A04E04016510408F05AC2F201EE0F53
:10218000FF1FEC5AFA4F859194916EE772E00E941E
:10219000D72B16E0189F7001199FF00C1124C7016E
:1021A000B0E0A0E088159905AA05BB0508F4CAC0EF
:1021B0002FEFC21AD20A0FEF401A500ADACFE0917D
:1021C0007E04AE2FB0E0A30192010E94222C2B01CD
:1021D0003C017694679457944794A70196010E9416
:1021E000222C6B877C878D879E876B017C01F69400
:1021F000E794D794C794B101EB8DFC8D6E1B7F0BD8
:102200006C0D7D1DC20182599F4F06E026E04EEB0A
:1022100050E00E942C0B6CE370E06A197B0968198E
:1022200079096C0D7D1DC20180599F4F04E026E0A5
:1022300048EB50E00E942C0B8AEC90E09A83898353
:1022400084EC90E09C838B8389A19AA1880F991FCD
:10225000E1E0F0E0EC0FFD1FE80FF91F4081518134
:1022600060E470E06A197B09681979096C0D7D1DBD
:10227000C20181599F4F02E026E00E942C0BEECE56
:10228000123009F0EBCEE0917E04AE2FB0E0A30156
:1022900092010E94222C2B013C0176946794579462
:1022A0004794A70196010E94222C6B017C01F694B1
:1022B000E794D794C794CB86DC86ED86FE86B10181
:1022C000EB8CFC8C6E197F096C0D7D1DC20182594F
:1022D0009F4F06E026E042EB50E00E942C0B6CE39F
:1022E00070E06A197B09681979090B851C85600FF4
:1022F000711FC20180599F4F04E026E04CEA50E074
:102300000E942C0B8AEC90E09A83898384EC90E005
:102310009C838B83C9A0DAA0CC0CDD1C21E030E0CB
:102320002C0F3D1FC20ED31ED6014D915C9160E46F
:1023300070E06A197B0968197909EB85FC856E0FD5
:102340007F1F96CF95018401081B190B2A0B3B0BAD
:10235000D901C8018F389105A105B10508F068C100
:10236000E818F908970120583F4F388B2F871091B4
:102370007E0436E0369FF001379FF00D112435962C
:10238000A12FB0E029A13AA14BA15CA10E94222C6F
:10239000DC01CB01B695A79597958795E80FF91FB6
:1023A000A12FB0E02D8D3E8D4F8D58A10E94222C83
:1023B0006B8B7C8B8D8B9E8BDC01CB01B695A795AF
:1023C000979587954F855889840F951F20919D0477
:1023D00003E1222309F425C12FE047E255E0BF01C4
:1023E0000E942C0B55E8E50EF11C8EE6E816F10470
:1023F0000CF4E1CEAF85B889A637B1050CF0DBCE81
:10240000B0E42B1631040CF0D6CEEF88F88C1E14F5
:102410001F040CF0D0CE8091A604823009F4CBCEFC
:1024200062E0F62EF092A6040E94060D182F0E947C
:10243000160D282F412FB1018EE690E00E94F3097E
:102440000E94260D182F0E94360D282F412FB10112
:102450008EE690E00E94F3090E94460D182F0E941C
:10246000560D282F412FB1018EE690E00E94F3090E
:102470000E94660D182F0E94560D282F412FB10182
:102480008EE690E00E94F3090E94760D182F0E94BC
:10249000360D282F412FB1018EE690E00E94F309FE
:1024A0000E94860D182F0E94160D282F412FB10172
:1024B0008EE690E00E94F3090E94760D182F0E948C
:1024C000960D282F412FB1018EE690E00E94F3096E
:1024D0000E94660D182F0E94A60D282F412FB101D2
:1024E0008EE690E00E94F3090E94460D182F0E948C
:1024F000A60D282F412FB1018EE690E00E94F3092E
:102500000E94260D182F0E94960D282F412FB101F1
:102510008EE690E00E94F3090E94060D182F0E949B
:10252000160D282F412FB1018EE690E00E94F3098D
:102530000E94B60D182F0E94C60D282F412FB10101
:102540008EE690E00E94F3090E94D60D182F0E949B
:10255000E60D282F412FB1018EE690E00E94F3098D
:102560000E94160D182F0E94F60D282F412FB10141
:102570008EE690E00E94F3090E94060E182F0E943A
:10258000E60D282F412FB1018EE690E00E94F3095D
:102590000E94160E182F0E94C60D282F412FB10140
:1025A0008EE690E00E94F3090E94160E182F0E94FA
:1025B000260E282F412FB1018EE690E00E94F309EC
:1025C0000E94060E182F0E94360E282F412FB101AF
:1025D0008EE690E00E94F3090E94160D182F0E94CB
:1025E000460E282F412FB1018EE690E00E94F3099C
:1025F0000E94D60D182F0E94360E282F412FB101B0
:102600008EE690E00E94F3090E94B60D182F0E94FA
:10261000260E282F412FB1018EE690E00E94F3098B
:10262000CACD2FE04AEF54E0BF010E942C0BC3CD6E
:10263000C601860D971D90939C0480939B04C090C7
:102640009504D0909604DC8ACB8A4601188A1F86AE
:1026500054EF452E5EE0552E612C712CEB84FC84EA
:102660000D851E854E185F08600A710ACB8CC20C5E
:10267000D32CD11CDBA6CAA600E18016910408F079
:10268000C0C181E090E0082C02C0880F991F0A9415
:10269000E2F7B0E0A0E040918B0450918C0460918F
:1026A0008D0470918E0484239523A623B723892B50
:1026B0008A2B8B2BF9F4F401EE0FFF1FE652FB4F30
:1026C000859194916EE772E00E94D72B16E0189FD7
:1026D0005001199FB00C1124C501B0E0A0E0841591
:1026E0009505A605B70550F02F8538892F5F3F4F18
:1026F000388B2F87EFEF8E1A9E0ABECF73016201CF
:10270000C81AD90AEA0AFB0AD701C6018638910518
:10271000A105B10508F075C196E0D92ED69E7001CD
:10272000D79EF00C1124A418B508650100E8C00E6E
:10273000D11C97012E5E3F4F388F2F8B10917E0456
:10274000A12FB0E029A13AA14BA15CA10E94222CAB
:10275000DC01CB01B695A79597958795EF89F88D04
:10276000E80FF91FA12FB0E02D8D3E8D4F8D58A1A0
:102770000E94222C6DA37EA38FA398A7DC01CB011E
:10278000B695A795979587958C0D9D1D07E026E03A
:1027900044ED54E0BF010E942C0B80919D048111F7
:1027A000A9CF35E8A30EB11C4EE6A416B1040CF473
:1027B000A1CF56E7C516D1040CF09CCFC7014796B0
:1027C000821593050CF496CF8AA59BA5AF89B88D89
:1027D000A817B9070CF08ECF80918B0490918C04D0
:1027E000A0918D04B0918E0441E050E060E070E073
:1027F000082C04C0440F551F661F771F0A94D2F798
:10280000842B952BA62BB72B80938B0490938C0451
:10281000A0938D04B0938E0480917F0490918004E6
:102820008C599F4F9093800480937F040E94F60DF3
:10283000182F0E94160D282FB5E1EB0EF11C412F29
:10284000B701C6010E94F3090E94E60D182F0E94ED
:10285000D60D282F412FB701C6010E94F3090E940F
:10286000C60D182F0E94B60D282F412FB701C601A3
:102870000E94F3090E94260E182F0E94B60D282FE1
:10288000412FB701C6010E94F3090E94360E182F8E
:102890000E94D60D282F412FB701C6010E94F309CF
:1028A0000E94460E182F0E94160D282F412FB701A7
:1028B000C6010E94F3090E94360E182F0E94060ED0
:1028C000282F412FB701C6010E94F3090E94260E4E
:1028D000182F0E94160E282F412FB701C6010E9403
:1028E000F3090E94C60D182F0E94160E282F412FA3
:1028F000B701C6010E94F3090E94E60D182F0E943D
:10290000060E282F412FB701C6010E94F3090E942D
:10291000F60D182F0E94160D282F412FB701C60162
:102920000E94F3090E94560E182F0E94660E282F4F
:10293000412FB701C6010E94F3090E94C60D182F4E
:102940000E94760E282F412FB701C6010E94F3097D
:102950000E94160D182F0E94560E282F412FB701E6
:10296000C6010E94F3090E94260E182F0E94760EBF
:10297000282F412FB701C6010E94F3090E94F60CCF
:10298000182F0E94660E282F412FB701C6010E9402
:10299000F3090E94F60C182F0E94860E282F412F53
:1029A000B701C6010E94F3090E94260E182F0E944B
:1029B000960E282F412FB701C6010E94F3090E94ED
:1029C000160D182F0E94F60C282F412FB701C601B3
:1029D0000E94F3090E94C60D182F0E94960E282F00
:1029E000412FB701C6010E94F3090E94560E182F0D
:1029F0000E94860E282F412FB701C6010E94F309BD
:102A000079CE8F859889CB88DC888C0D9D1D90931D
:102A100096048093950419A5113009F4AAC3609017
:102A20009704709098042301D12CC12C84EF882E38
:102A30008EE0982EA12CB12CEB84FC840D851E8594
:102A40008E189F08A00AB10AEB8CE20CF32CF11C43
:102A5000F88EEF8A06E04016510408F096C1F201A4
:102A6000EE0FFF1FE853FB4F859194916EE772E0E4
:102A70000E94D72B16E0189F7001199FF00C1124AB
:102A8000C701B0E0A0E088159905AA05BB0538F09C
:102A90002FEFC21AD20A0FEF401A500ADBCF95016E
:102AA0008401081B190B2A0B3B0BD901C8018F3875
:102AB0009105A105B10508F068C1E818F90897016A
:102AC00020583F4F388B2F8710917E0436E0369F79
:102AD000F001379FF00D11243596A12FB0E029A108
:102AE0003AA14BA15CA10E94222CDC01CB01B6953E
:102AF000A79597958795E80FF91FA12FB0E02D8D29
:102B00003E8D4F8D58A10E94222C6B8B7C8B8D8B20
:102B10009E8BDC01CB01B695A795979587954F8540
:102B20005889840F951F20919D0403E1223009F4F8
:102B300025C12FE04BE954E0BF010E942C0B55E862
:102B4000E50EF11C8EE6E816F1040CF4A4CFAF8577
:102B5000B889A637B1050CF09ECFB0E42B1631042E
:102B60000CF099CFEF88F88C1E141F040CF093CF53
:102B70008091A604823009F48ECF62E0F62EF092A6
:102B8000A6040E94060D182F0E94160D282F412F13
:102B9000B1018EE690E00E94F3090E94260D182FE5
:102BA0000E94360D282F412FB1018EE690E00E9441
:102BB000F3090E94460D182F0E94560D282F412F11
:102BC000B1018EE690E00E94F3090E94660D182F75
:102BD0000E94560D282F412FB1018EE690E00E94F1
:102BE000F3090E94760D182F0E94360D282F412FD1
:102BF000B1018EE690E00E94F3090E94860D182F25
:102C00000E94160D282F412FB1018EE690E00E9400
:102C1000F3090E94760D182F0E94960D282F412F40
:102C2000B1018EE690E00E94F3090E94660D182F14
:102C30000E94A60D282F412FB1018EE690E00E9440
:102C4000F3090E94460D182F0E94A60D282F412F30
:102C5000B1018EE690E00E94F3090E94260D182F24
:102C60000E94960D282F412FB1018EE690E00E9420
:102C7000F3090E94060D182F0E94160D282F412FD0
:102C8000B1018EE690E00E94F3090E94B60D182F64
:102C90000E94C60D282F412FB1018EE690E00E94C0
:102CA000F3090E94D60D182F0E94E60D282F412F00
:102CB000B1018EE690E00E94F3090E94160D182FD4
:102CC0000E94F60D282F412FB1018EE690E00E9460
:102CD000F3090E94060E182F0E94E60D282F412F9F
:102CE000B1018EE690E00E94F3090E94160E182FA3
:102CF0000E94C60D282F412FB1018EE690E00E9460
:102D0000F3090E94160E182F0E94260E282F412F1D
:102D1000B1018EE690E00E94F3090E94060E182F82
:102D20000E94360E282F412FB1018EE690E00E94BE
:102D3000F3090E94160D182F0E94460E282F412FCE
:102D4000B1018EE690E00E94F3090E94D60D182F83
:102D50000E94360E282F412FB1018EE690E00E948E
:102D6000F3090E94B60D182F0E94260E282F412F1E
:102D7000B1018EE690E00E94F3098DCE2FE04EE681
:102D800054E0BF010E942C0B86CEC601860D971D14
:102D90009093980480939704C0909104D0909204EB
:102DA000DC8ACB8A4601188A1F8654EF452E5EE0E6
:102DB000552E612C712CEB84FC840D851E854E18DC
:102DC0005F08600A710ACB8CC20CD32CD11CDBA625
:102DD000CAA600E18016910408F0C1C181E090E02C
:102DE000082C02C0880F991F0A94E2F7B0E0A0E017
:102DF000409183045091840460918504709186040D
:102E000084239523A623B723892B8A2B8B2BF9F4B4
:102E1000F401EE0FFF1FE25BFB4F859194916EE78B
:102E200072E00E94D72B16E0189F5001199FB00C3A
:102E30001124C501B0E0A0E084159505A605B705ED
:102E400050F02F8538892F5F3F4F388B2F87EFEF5A
:102E50008E1A9E0ABECF73016201C81AD90AEA0A05
:102E6000FB0AD701C60186389105A105B10508F016
:102E700076C196E0D92ED69E7001D79EF00C112413
:102E8000A418B508650100E8C00ED11C97012E5E9C
:102E90003F4F388F2F8B10917E04A12FB0E029A1D6
:102EA0003AA14BA15CA10E94222CDC01CB01B6957A
:102EB000A79597958795EF89F88DE80FF91FA12FB2
:102EC000B0E02D8D3E8D4F8D58A10E94222C6DA318
:102ED0007EA38FA398A7DC01CB01B695A795979504
:102EE00087958C0D9D1D07E026E048E454E0BF0166
:102EF0000E942C0B80919D04823009F0A8CF35E808
:102F0000A30EB11C4EE6A416B1040CF4A0CF56E7F4
:102F1000C516D1040CF09BCFC701479682159305C7
:102F20000CF495CF8AA59BA5AF89B88DA817B907D2
:102F30000CF08DCF8091830490918404A09185043E
:102F4000B091860441E050E060E070E0082C04C0DD
:102F5000440F551F661F771F0A94D2F7842B952BB9
:102F6000A62BB72B8093830490938404A0938504AD
:102F7000B093860480917F04909180048C599F4F78
:102F80009093800480937F040E94F60D182F0E9476
:102F9000160D282FB5E1EB0EF11C412FB701C6012C
:102FA0000E94F3090E94E60D182F0E94D60D282FCB
:102FB000412FB701C6010E94F3090E94C60D182FC8
:102FC0000E94B60D282F412FB701C6010E94F309B8
:102FD0000E94260E182F0E94B60D282F412FB701F0
:102FE000C6010E94F3090E94360E182F0E94D60DCA
:102FF000282F412FB701C6010E94F3090E94460EF7
:10300000182F0E94160D282F412FB701C6010E94CC
:10301000F3090E94360E182F0E94060E282F412F0A
:10302000B701C6010E94F3090E94260E182F0E94C4
:10303000160E282F412FB701C6010E94F3090E94E6
:10304000C60D182F0E94160E282F412FB701C6015A
:103050000E94F3090E94E60D182F0E94060E282FE9
:10306000412FB701C6010E94F3090E94F60D182FE7
:103070000E94160D282F412FB701C6010E94F309A7
:103080000E94560E182F0E94660E282F412FB7015E
:10309000C6010E94F3090E94C60D182F0E94760EE9
:1030A000282F412FB701C6010E94F3090E94160D77
:1030B000182F0E94560E282F412FB701C6010E94DB
:1030C000F3090E94260E182F0E94760E282F412FFA
:1030D000B701C6010E94F3090E94F60C182F0E9446
:1030E000660E282F412FB701C6010E94F3090E94E6
:1030F000F60C182F0E94860E282F412FB701C6010B
:103100000E94F3090E94260E182F0E94960E282F67
:10311000412FB701C6010E94F3090E94160D182F16
:103120000E94F60C282F412FB701C6010E94F30917
:103130000E94C60D182F0E94960E282F412FB7010E
:10314000C6010E94F3090E94560E182F0E94860E97
:10315000282F412FB701C6010E94F30978CE8F8531
:103160009889CB88DC888C0D9D1D90939204809368
:1031700091046090990470909A042301D12CC12C81
:1031800084EF882E8EE0982EA12CB12CEB84FC8449
:103190000D851E858E189F08A00AB10AEB8CE20CE3
:1031A000F32CF11CF88EEF8A05E04016510408F06C
:1031B00096C1F201EE0FFF1FE25CFB4F85919491E7
:1031C0006EE772E00E94D72B16E0189F7001199FDE
:1031D000F00C1124C701B0E0A0E088159905AA05FC
:1031E000BB0538F02FEFC21AD20A0FEF401A500A6F
:1031F000DBCF95018401081B190B2A0B3B0BD9016E
:10320000C8018F389105A105B10508F068C1E8181B
:10321000F908970120583F4F388B2F8710917E0473
:1032200036E0369FF001379FF00D11243596A12F1F
:10323000B0E029A13AA14BA15CA10E94222CDC01A3
:10324000CB01B695A79597958795E80FF91FA12F04
:10325000B0E02D8D3E8D4F8D58A10E94222C6B8B9E
:103260007C8B8D8B9E8BDC01CB01B695A7959795BA
:1032700087954F855889840F951F20919D0403E100
:10328000213009F425C12FE041E154E0BF010E9443
:103290002C0B55E8E50EF11C8EE6E816F1040CF453
:1032A000A4CFAF85B889A637B1050CF09ECFB0E4A6
:1032B0002B1631040CF099CFEF88F88C1E141F04E4
:1032C0000CF093CF8091A604823009F48ECF62E097
:1032D000F62EF092A6040E94060D182F0E94160DDD
:1032E000282F412FB1018EE690E00E94F3090E9441
:1032F000260D182F0E94360D282F412FB1018EE682
:1033000090E00E94F3090E94460D182F0E94560D6E
:10331000282F412FB1018EE690E00E94F3090E9410
:10332000660D182F0E94560D282F412FB1018EE6F1
:1033300090E00E94F3090E94760D182F0E94360D2E
:10334000282F412FB1018EE690E00E94F3090E94E0
:10335000860D182F0E94160D282F412FB1018EE6E1
:1033600090E00E94F3090E94760D182F0E94960D9E
:10337000282F412FB1018EE690E00E94F3090E94B0
:10338000660D182F0E94A60D282F412FB1018EE641
:1033900090E00E94F3090E94460D182F0E94A60D8E
:1033A000282F412FB1018EE690E00E94F3090E9480
:1033B000260D182F0E94960D282F412FB1018EE661
:1033C00090E00E94F3090E94060D182F0E94160D2E
:1033D000282F412FB1018EE690E00E94F3090E9450
:1033E000B60D182F0E94C60D282F412FB1018EE671
:1033F00090E00E94F3090E94D60D182F0E94E60D5E
:10340000282F412FB1018EE690E00E94F3090E941F
:10341000160D182F0E94F60D282F412FB1018EE6B0
:1034200090E00E94F3090E94060E182F0E94E60DFC
:10343000282F412FB1018EE690E00E94F3090E94EF
:10344000160E182F0E94C60D282F412FB1018EE6AF
:1034500090E00E94F3090E94160E182F0E94260E7B
:10346000282F412FB1018EE690E00E94F3090E94BF
:10347000060E182F0E94360E282F412FB1018EE61E
:1034800090E00E94F3090E94160D182F0E94460E2C
:10349000282F412FB1018EE690E00E94F3090E948F
:1034A000D60D182F0E94360E282F412FB1018EE61F
:1034B00090E00E94F3090E94B60D182F0E94260E7C
:1034C000282F412FB1018EE690E00E94F3098DCEA6
:1034D0002FE044EE53E0BF010E942C0B86CEC601C4
:1034E000860D971D90939A0480939904C0908F0441
:1034F000D0909004D88ACF864601B12CA12C16E03A
:1035000054EF452E5EE0552E612C712CCB84DC846B
:10351000ED84FE844C185D086E087F08EB8CE20C8D
:10352000F32CF11CFEA2EDA20CE28016910408F02F
:1035300088C1F401EE0FFF1FE457FC4F8591949171
:103540006EE772E00E94D72B189F7001199FF00C54
:103550001124C701B0E0A0E084159505A605B705C4
:1035600038F02FEFA21AB20A0FEF801A900ADCCFC0
:10357000A3019201281B390B4A0B5B0BDA01C9012D
:1035800086389105A105B10508F05BC1169F600161
:10359000179FD00C1124E418F508A6014E5E5F4F6A
:1035A0005C8B4B8B00917E04A02FB0E029A13AA147
:1035B0004BA15CA10E94222CDC01CB01B695A79502
:1035C00097958795EB89FC89E80FF91FA02FB0E04C
:1035D0002D8D3E8D4F8D58A10E94222C6F8B788FA0
:1035E000898F9A8FDC01CB01B695A7959795879522
:1035F000970120583F4F820F931F06E026E046E8D0
:1036000053E0BF010E942C0B57E1E50EF11C8DE049
:10361000E816F10408F0A8CF97E1C90ED11CC21436
:10362000D3040CF4A1CFCDA0DEA0EB88FC88EC1471
:10363000FD040CF099CF8091A604823009F494CF58
:1036400092E0F92EF092A6040E94060D082F0E9427
:10365000160D282F402FB1018EE690E00E94F3094D
:103660000E94260D082F0E94360D282F402FB101F1
:103670008EE690E00E94F3090E94460D082F0E94FA
:10368000560D282F402FB1018EE690E00E94F309DD
:103690000E94660D082F0E94560D282F402FB10161
:1036A0008EE690E00E94F3090E94760D082F0E949A
:1036B000360D282F402FB1018EE690E00E94F309CD
:1036C0000E94860D082F0E94160D282F402FB10151
:1036D0008EE690E00E94F3090E94760D082F0E946A
:1036E000960D282F402FB1018EE690E00E94F3093D
:1036F0000E94660D082F0E94A60D282F402FB101B1
:103700008EE690E00E94F3090E94460D082F0E9469
:10371000A60D282F402FB1018EE690E00E94F309FC
:103720000E94260D082F0E94960D282F402FB101D0
:103730008EE690E00E94F3090E94060D082F0E9479
:10374000160D282F402FB1018EE690E00E94F3095C
:103750000E94B60D082F0E94C60D282F402FB101E0
:103760008EE690E00E94F3090E94D60D082F0E9479
:10377000E60D282F402FB1018EE690E00E94F3095C
:103780000E94160D082F0E94F60D282F402FB10120
:103790008EE690E00E94F3090E94060E082F0E9418
:1037A000E60D282F402FB1018EE690E00E94F3092C
:1037B0000E94160E082F0E94C60D282F402FB1011F
:1037C0008EE690E00E94F3090E94160E082F0E94D8
:1037D000260E282F402FB1018EE690E00E94F309BB
:1037E0000E94060E082F0E94360E282F402FB1018E
:1037F0008EE690E00E94F3090E94160D082F0E94A9
:10380000460E282F402FB1018EE690E00E94F3096A
:103810000E94D60D082F0E94360E282F402FB1018E
:103820008EE690E00E94F3090E94B60D082F0E94D8
:10383000260E282F402FB1018EE690E00E94F3095A
:1038400093CE8F8598898A0D9B1D909390048093C9
:103850008F04C0909304D0909404DC8ACB8A4601F4
:10386000188A1F8684EF482E8EE0582E612C712C0A
:10387000EB84FC840D851E854E185F08600A710A72
:10388000CB8CC20CD32CD11CDEA2CDA200E18016C1
:10389000910408F0C1C181E090E0082C02C0880FBB
:1038A000991F0A94E2F7B0E0A0E04091870450919C
:1038B00088046091890470918A0484239523A62347
:1038C000B723892B8A2B8B2BF9F4F401EE0FFF1F02
:1038D000EA59FC4F859194916EE772E00E94D72BD4
:1038E00016E0189F5001199FB00C1124C501B0E0DB
:1038F000A0E084159505A605B70550F02F853889F9
:103900002F5F3F4F388B2F87EFEF8E1A9E0ABECF67
:1039100073016201C81AD90AEA0AFB0AD701C60173
:1039200086389105A105B10508F076C1E6E0DE2EE6
:10393000D69E7001D79EF00C1124A418B50865011D
:1039400000E8C00ED11C97012E5E3F4F3C8F2B8F9D
:1039500010917E04A12FB0E029A13AA14BA15CA156
:103960000E94222CDC01CB01B695A79597958795EF
:10397000EB8DFC8DE80FF91FA12FB0E02D8D3E8D52
:103980004F8D58A10E94222C6F8B788F898F9A8F30
:10399000DC01CB01B695A795979587958C0D9D1D5C
:1039A00007E026E040E653E0BF010E942C0B809127
:1039B0009D04813009F0A8CF35E8A30EB11C4EE676
:1039C000A416B1040CF4A0CF56E7C516D1040CF030
:1039D0009BCFC7014796821593050CF495CF8DA117
:1039E0009EA1AB8DBC8DA817B9070CF08DCF80912F
:1039F000870490918804A0918904B0918A0441E0E1
:103A000050E060E070E0082C04C0440F551F661FB2
:103A1000771F0A94D2F7842B952BA62BB72B809374
:103A2000870490938804A0938904B0938A048091BA
:103A30007F04909180048C599F4F909380048093D1
:103A40007F040E94F60D182F0E94160D282FB5E155
:103A5000EB0EF11C412FB701C6010E94F3090E9431
:103A6000E60D182F0E94D60D282F412FB701C60151
:103A70000E94F3090E94C60D182F0E94B60D282F30
:103A8000412FB701C6010E94F3090E94260E182F8C
:103A90000E94B60D282F412FB701C6010E94F309DD
:103AA0000E94360E182F0E94D60D282F412FB701E5
:103AB000C6010E94F3090E94460E182F0E94160D9F
:103AC000282F412FB701C6010E94F3090E94360E2C
:103AD000182F0E94060E282F412FB701C6010E9401
:103AE000F3090E94260E182F0E94160E282F412F30
:103AF000B701C6010E94F3090E94C60D182F0E944B
:103B0000160E282F412FB701C6010E94F3090E940B
:103B1000E60D182F0E94060E282F412FB701C6016F
:103B20000E94F3090E94F60D182F0E94160D282FEF
:103B3000412FB701C6010E94F3090E94560E182FAB
:103B40000E94660E282F412FB701C6010E94F3097B
:103B50000E94C60D182F0E94760E282F412FB70104
:103B6000C6010E94F3090E94160D182F0E94560EDE
:103B7000282F412FB701C6010E94F3090E94260E8B
:103B8000182F0E94760E282F412FB701C6010E94E0
:103B9000F3090E94F60C182F0E94660E282F412F61
:103BA000B701C6010E94F3090E94F60C182F0E946B
:103BB000860E282F412FB701C6010E94F3090E94EB
:103BC000260E182F0E94960E282F412FB701C601EE
:103BD0000E94F3090E94160D182F0E94F60C282F40
:103BE000412FB701C6010E94F3090E94C60D182F8C
:103BF0000E94960E282F412FB701C6010E94F3099B
:103C00000E94560E182F0E94860E282F412FB701B2
:103C1000C6010E94F30978CE8F859889CB88DC880D
:103C20008C0D9D1D9093940480939304D9A4D1107E
:103C300009C00E94860E682F80917B040E94B60EF8
:103C400080937B046B857C858D859E8526E030E0A6
:103C500040E050E00E942D2C69017A0149015A018F
:103C600007E1800E911CA11CB11C1EE7811612E019
:103C70009106A104B10430F05DE7852E52E0952E47
:103C8000A12CB12C6B857C858D859E8523E030E051
:103C900040E050E00E942D2C6F87788B898B9A8BA7
:103CA0006B857C858D859E8526E030E040E050E088
:103CB0000E942D2C6B877C878D879E874B845C842C
:103CC0002AE7420E511C9E012F5F3F4FC1010D9606
:103CD00088AB99AB2F8B3DA38C149D04AE04BF041D
:103CE00008F059C131E4231631040CF04CC3C090E4
:103CF000A404D090A5040091A2041091A304C016BE
:103D0000D10699F164E070E0CE0107960E94F10CB3
:103D100064E070E09E012F5F3F4F5901C9010E948E
:103D2000F10C64E070E0C5010E94F10CDA82C982F6
:103D3000015011091C830B8389819A81AB81BC815D
:103D40008F839887A987BA87760110E000E0AD8E4F
:103D5000B9A289859A858E159F0508F019C40C0DA6
:103D60001D1D1093A5040093A404C9A4C110FAC09A
:103D70008091A604823009F4F5C084E00E94E70B2C
:103D8000811106C080E10E94E70B882309F4C5C0B9
:103D900061E070E0CE0101960E94F10C0E94160DC8
:103DA000282F81010A5F1F4F40E2B8018FE690E0A3
:103DB0000E94F30961E070E0CE0101960E94F10CCF
:103DC0000E94260D282F4AE1B8018FE690E00E945C
:103DD000F30961E070E0CE0101960E94F10C61E010
:103DE00070E0CE0101960E94F10C2EE14AE0B8018C
:103DF0008FE690E00E94F30961E070E0CE01019649
:103E00000E94F10C61E070E0CE0101960E94F10C7D
:103E10002EE146EFB8018FE690E00E94F30961E0E1
:103E200070E0CE0101960E94F10C0E94260D282F11
:103E300046EEB8018FE690E00E94F30961E070E081
:103E4000CE0101960E94F10C0E94160D282F40EE23
:103E5000B8018FE690E00E94F30961E070E0CE01C6
:103E600001960E94F10C0E94760D282F46EEB801B3
:103E70008FE690E00E94F30961E070E0CE010196C8
:103E80000E94F10C61E070E0CE0101960E94F10CFD
:103E900022EE46EFB8018FE690E00E94F30961E060
:103EA00070E0CE0101960E94F10C61E070E0CE015D
:103EB00001960E94F10C22EE4AE0B8018FE690E0F4
:103EC0000E94F30961E070E0CE0101960E94F10CBE
:103ED0000E94760D282F4AE1B8018FE690E00E94FB
:103EE000F30961E070E0CE0101960E94F10C0E949E
:103EF000160D282F40E2B8018FE690E00E94F309EA
:103F000086E080937E0480919D0490E0019663E0BA
:103F100070E00E94EB2B80939D0488E00E94E70BE9
:103F2000811105C080E80E94E70B882379F0809119
:103F30007B04882341F00CF0B9C3895F8595859592
:103F40008595859519F480E280937B0460917B04CC
:103F500080917C0490917D040E94D40E90937D0406
:103F600080937C04E1960FB6F894DEBF0FBECDBF00
:103F7000DF91CF911F910F91FF90EF90DF90CF9045
:103F8000BF90AF909F908F907F906F905F904F9079
:103F90003F902F90089592012B5F3F4F81E02E3686
:103FA00031050CF480E011E096E7491651040CF05D
:103FB00010E02E3631050CF08DC08B8BA0E0B3E005
:103FC000BC8FAB8FE6E1F0E0FC87EB8742E1642E2B
:103FD000712C11E096012E513F4F3BA72AA7EAA56D
:103FE000FBA5849181238113A7C1FB89FF2309F4D9
:103FF00075C160917B0480917C0490917D040E9446
:10400000D40E0E94C80925E330E0281B390B4B85EC
:104010005C85421753070CF461C160917B04809169
:104020007C0490917D040E94D40E0E94C809A2E4F1
:10403000B0E0A81BB90B6A167B060CF04FC180914B
:104040007C0490917D040E94C8099C0184E390E067
:10405000821B930B0091A604EB85FC85E817F907FA
:104060003CF081E490E0821B930B68167906A4F182
:104070000E94A60E90917B04981754F42B8D3C8DD2
:1040800030937D0420937C040E94A60E80937B04D1
:10409000023009F423C10E94560E082F8F8598899B
:1040A000A989BA8981309105A105B10509F461C1D9
:1040B00061E070E00297A105B10509F45EC18F8946
:1040C0009DA10E94F10C25EF402F68A979A982E7F4
:1040D00090E002C11B8B72CF023009F4FFC0F2E006
:1040E000F093A6040E94060D082F0E94160D282F9B
:1040F000402FB1018EE690E00E94F3090E94260D48
:10410000082F0E94360D282F402FB1018EE690E037
:104110000E94F3090E94460D082F0E94560D282F79
:10412000402FB1018EE690E00E94F3090E94660DD7
:10413000082F0E94560D282F402FB1018EE690E0E7
:104140000E94F3090E94760D082F0E94360D282F39
:10415000402FB1018EE690E00E94F3090E94860D87
:10416000082F0E94160D282F402FB1018EE690E0F7
:104170000E94F3090E94760D082F0E94960D282FA9
:10418000402FB1018EE690E00E94F3090E94660D77
:10419000082F0E94A60D282F402FB1018EE690E037
:1041A0000E94F3090E94460D082F0E94A60D282F99
:1041B000402FB1018EE690E00E94F3090E94260D87
:1041C000082F0E94960D282F402FB1018EE690E017
:1041D0000E94F3090E94060D082F0E94160D282F39
:1041E000402FB1018EE690E00E94F3090E94B60DC7
:1041F000082F0E94C60D282F402FB1018EE690E0B7
:104200000E94F3090E94D60D082F0E94E60D282F68
:10421000402FB1018EE690E00E94F3090E94160D36
:10422000082F0E94F60D282F402FB1018EE690E056
:104230000E94F3090E94060E082F0E94E60D282F07
:10424000402FB1018EE690E00E94F3090E94160E05
:10425000082F0E94C60D282F402FB1018EE690E056
:104260000E94F3090E94160E082F0E94260E282F86
:10427000402FB1018EE690E00E94F3090E94060EE5
:10428000082F0E94360E282F402FB1018EE690E0B5
:104290000E94F3090E94160D082F0E94460E282F37
:1042A000402FB1018EE690E00E94F3090E94D60DE6
:1042B000082F0E94360E282F402FB1018EE690E085
:1042C0000E94F3090E94B60D082F0E94260E282F87
:1042D000402FB1018EE690E00E94F30900917E0428
:1042E000A02FB0E029A13AA14BA15CA10E94222CF1
:1042F000DC01CB01B695A79597958795F301E80F5B
:10430000F91FA02FB0E02D8D3E8D4F8D58A10E943A
:10431000222C6CA77DA78EA79FA7DC01CB01B695A9
:10432000A79597958795840D951D06E026E04CEDA1
:1043300050E0BF010E942C0B110F96E0690E711C1A
:10434000AB85BC851696BC87AB87EB8DFC8DE056A4
:10435000F109FC8FEB8FF2E46F16710409F03FCE88
:104360004FEFC41AD40AE40AF40A56E0451A510879
:10437000B3CC0E94F60C282FA7CE8F899DA10E9456
:10438000F10C20EFA1CE8091A604823009F4AFCCCD
:1043900082E08093A6040E94060D182F0E94160D3D
:1043A000282F412FB1018EE690E00E94F3090E9470
:1043B000260D182F0E94360D282F412FB1018EE6B1
:1043C00090E00E94F3090E94460D182F0E94560D9E
:1043D000282F412FB1018EE690E00E94F3090E9440
:1043E000660D182F0E94560D282F412FB1018EE621
:1043F00090E00E94F3090E94760D182F0E94360D5E
:10440000282F412FB1018EE690E00E94F3090E940F
:10441000860D182F0E94160D282F412FB1018EE610
:1044200090E00E94F3090E94760D182F0E94960DCD
:10443000282F412FB1018EE690E00E94F3090E94DF
:10444000660D182F0E94A60D282F412FB1018EE670
:1044500090E00E94F3090E94460D182F0E94A60DBD
:10446000282F412FB1018EE690E00E94F3090E94AF
:10447000260D182F0E94960D282F412FB1018EE690
:1044800090E00E94F3090E94060D182F0E94160D5D
:10449000282F412FB1018EE690E00E94F3090E947F
:1044A000B60D182F0E94C60D282F412FB1018EE6A0
:1044B00090E00E94F3090E94D60D182F0E94E60D8D
:1044C000282F412FB1018EE690E00E94F3090E944F
:1044D000160D182F0E94F60D282F412FB1018EE6E0
:1044E00090E00E94F3090E94060E182F0E94E60D2C
:1044F000282F412FB1018EE690E00E94F3090E941F
:10450000160E182F0E94C60D282F412FB1018EE6DE
:1045100090E00E94F3090E94160E182F0E94260EAA
:10452000282F412FB1018EE690E00E94F3090E94EE
:10453000060E182F0E94360E282F412FB1018EE64D
:1045400090E00E94F3090E94160D182F0E94460E5B
:10455000282F412FB1018EE690E00E94F3090E94BE
:10456000D60D182F0E94360E282F412FB1018EE64E
:1045700090E00E94F3090E94B60D182F0E94260EAB
:10458000282F412FB1018EE690E00E94F309AFCBB6
:10459000C70164E670E00E94EB2B4C0137E0389FC6
:1045A0005001399FB00C1124A50140565E4F3A01CD
:1045B00059A551114AC0D3018C91823108F068C0CD
:1045C0008091A604823009F069C00E94A60E682F6F
:1045D000F30185810E94B60E682F95012F553E4F3D
:1045E0002901D9018D919C910E94D40EF2019183F1
:1045F000808395012D553E4F3C872B8737E0389DB2
:10460000C001399D900D1124AC0140565E4F2A0126
:10461000DA0116966C91EB85FC85808191810E9470
:10462000D40EAB85BC858D939C930E94660E682F3B
:10463000F501EA55FE4F5F0180810E94B60ED5015B
:104640008C93F20180818F5F808327E0289DF001A9
:10465000299DF00D1124E056FE4F80813BEA839F97
:10466000812D1124869549A5481314C0D3011196B4
:104670008D919C910E94C8095C01F3018381948112
:104680000E94C809BC0141E0C5010E94310702C077
:104690000F5F1F4FFFEFEF1AFF0A5BCB61E070E087
:1046A0008D8D99A10E94F10C60E192CF885F46CC7C
:1046B0000F931F93CF93C62FFC0100811181C80176
:1046C0000E940C2CC81739F06C2FC801CF911F9194
:1046D0000F910C94142CCF911F910F9108951F925C
:1046E0000F920FB60F921124CF92DF92EF92FF92AA
:1046F0000F931F932F933F934F935F936F937F93EA
:104700008F939F93AF93BF93EF93FF93CF93DF93D9
:10471000CDB7DEB76C97DEBFCDBF1092E9008091B8
:10472000E80083FF25C08E010B5E1F4F68E0C801C3
:104730000E94690882EF8093E8008D89E02ED12ED7
:1047400087FF35C09091E80090FFFCCF982F9076BE
:1047500009F034C19E89911131C0803861F5809192
:1047600075048093F1001092F1008EEF8093E800C1
:104770006C960FB6F894DEBF0FBECDBFDF91CF9120
:10478000FF91EF91BF91AF919F918F917F916F9129
:104790005F914F913F912F911F910F91FF90EF905B
:1047A000DF90CF900F900FBE0F901F9018959EEF47
:1047B0009093E800CBCF1092F100D5CF2F89388DA0
:1047C000913059F48111D1CF2130310571F68091AA
:1047D00075048D7F80937504C8CF933049F481119F
:1047E000C4CF2130310509F6809175048260F2CF83
:1047F000953049F48091E80080FFFCCF8F89806874
:104800008093E300B2CF963009F0A9C0F88C0B8DED
:104810001C8D22E01092E90010926504109264044D
:10482000F2122EC010926304109262040E941F0CB8
:104830001F8299E09983FA8291E09E8390EA98879B
:104840009AEF99872091640430916504275F3F4F68
:104850003C832B838D831092E900109265041092A3
:104860006404109363040093620449E050E0BE01C5
:104870006F5F7F4F80E00E94010C0E941F0C75CF7C
:1048800010936304009362040E945508DC011296A1
:104890000D911C910115110509F43AC1D801ED9152
:1048A000FC910480F581E02D6E2D7D2DC8010995C8
:1048B000009709F028C1F80100851185EBCFF3E0DE
:1048C000FF120EC08F89882309F440C0823061F442
:1048D00040E86CE08EE795E00E94A408811145CF86
:1048E00081E28093EB0044CF813029F440E86BE013
:1048F00082E795E0F1CF833099F70E945508DC01FB
:104900001296ED90FC908E010F5F1F4F6801E1142D
:10491000F10479F0D701ED91FC910680F781E02D4B
:10492000B801C7010995080F111DF701E084F18452
:10493000EECFD8011C92F60101900020E9F73197E3
:10494000BF016C197D0940E0C601C6CF6CE575E07A
:10495000FB01449150E080E80E94010C06CF9730A3
:1049600009F4BECF983021F481E08093F100FDCEB0
:10497000993009F0FACE837009F0B2CFE3E3F1E0A9
:1049800081E031E096E32191211109C08EE7809307
:10499000EA001092EA008F8980937604E6CE809335
:1049A000E9003093EB00DF0111972C912093EC008C
:1049B0009093ED008F5F873031F7E8CF8B8D9C8D22
:1049C0001092E900109265041092640490936304BD
:1049D00080936204898D81117DC08E899D89913A71
:1049E00049F4813209F07CCF47E050E064E071E0A7
:1049F00080E0B2CF913209F073CF833269F48F89AE
:104A0000988DB0E0A0E08093000190930101A09305
:104A10000201B0930301A9CE803209F07FC08091DA
:104A2000E80082FFFCCF67E084E091E00E94690823
:104A30008BEF8093E80080917304EEEFFAE0811130
:104A400002C0E0E0F8E08091040190910501A0919E
:104A50000601B0910701803B9440A105B105B9F46E
:104A600080910B0180FD13C0EE3F8AE0F80721F52D
:104A700087E797E79183808388E19BE00FB6F894FE
:104A8000A895809360000FBE909360006ECE0FB625
:104A9000F894A895809160008861809360001092DE
:104AA00060000FBEA895EE3FAAE0FA0761F41092ED
:104AB000FF0A1092FE0A59CE808191819093FF0ADD
:104AC0008093FE0AD5CF8091FE0A9091FF0A9183D0
:104AD00080834BCE0E945508FC0102811381011591
:104AE000110509F4FDCED801ED91FC910190F08102
:104AF000E02D6E2D7D2DC8010995811136CEF8016E
:104B000000851185ECCF181619060CF42ECEE8CED0
:104B1000F1E0FF12D4CE60E675E01ACF823209F0E0
:104B200024CE8F8980930B0186CF1F921FB61F92D0
:104B300011248F939F938091E1009091E100937FE6
:104B40009093E10083FF0FC01092E90091E09093F1
:104B5000EB001092EC0092E39093ED00109276043B
:104B600098E09093F00082FF22C093E09093E900D8
:104B70009091F200992319F09AE39093E8009091B4
:104B80006104992341F090916104915090936104E4
:104B9000911101C05D9A90916604992341F0909122
:104BA0006604915090936604911101C0289A84FF85
:104BB00017C08091E2008E7E81608093E200809138
:104BC000E1008F7E8093E100809174048E7E80618D
:104BD000809374049F918F911F901FBE1F90189512
:104BE00080FFF8CF8091E2008E7E80618093E200AA
:104BF0008091E1008E7E8093E100809174048E7E2E
:104C00008160E6CF1F921FB61F9211242F933F930E
:104C10008F939F93AF93BF93809177049091780483
:104C2000A0917904B0917A043091600423E0230FBD
:104C30002D3750F50196A11DB11D2093600480937E
:104C4000770490937804A0937904B0937A048091C8
:104C50005C0490915D04A0915E04B0915F040196A4
:104C6000A11DB11D80935C0490935D04A0935E042C
:104C7000B0935F04BF91AF919F918F913F912F911E
:104C80001F901FBE1F90189526E8230F0296A11DA6
:104C9000B11DD3CFCDB7DEB7A4970FB6F894DEBF62
:104CA0000FBECDBF789484B5826084BD84B5816029
:104CB00084BD85B5826085BD85B5816085BD8091E7
:104CC0006E00816080936E0010928100809181005F
:104CD0008260809381008091810081608093810057
:104CE000809180008160809380008091910082603B
:104CF00080939100809191008160809391008091D8
:104D000090008160809390008091C10084608093C6
:104D1000C1008091C10082608093C1008091C10078
:104D200081608093C1008091C30081608093C30043
:104D30008091C00082608093C0008091C200816039
:104D40008093C20080917A00846080937A00809181
:104D50007A00826080937A0080917A0081608093EB
:104D60007A0080917A00806880937A0010927604AD
:104D700010927504109274048091D7008160809322
:104D8000D70080EA8093D80089B5806189BD89B554
:104D9000826089BD09B400FEFDCF61E070E080E073
:104DA00090E00E9407098091D8008F7C80618093F9
:104DB000D8008091E000807F8093E0008091E10046
:104DC0008E7E8093E1008DE08093E200559A209AD8
:104DD000EEEFFFE7859194918B3F9C4D19F481E0B4
:104DE0008093730481EC80937C0085B1806F85B9DA
:104DF00084B1877E84B984B1876E84B95E9A5F98E6
:104E00008AB1806D8AB9769A6E9881B3806F81BBC2
:104E1000899880B38D7080BB80E58CBD81E08DBDAD
:104E200085E090E00E944D095F9A85E090E00E9445
:104E30004D095E985C98EDECF5E084918EBD000024
:104E40000DB407FEFDCF319635E0EA3DF307A9F733
:104E50005C9A81E880936400809165008160809312
:104E6000650080E00E94F20B0E944D0802E010E015
:104E700087FF31C05C9885EA8EBD00000DB407FE47
:104E8000FDCF5C9A2E982F982D98809164008062B7
:104E90008093640081E083BF889513BEFCCF2D9A78
:104EA00088EC90E00E944D092F981A8309836FEFD8
:104EB000CE0101960E94582384EF91E00E944D0993
:104EC0002F9A0E944D0884788438D9F30EC088EC5C
:104ED00090E00E944D090E944D0882FF23C02D984A
:104EE0000E944D0884788438D1F20E944D08847164
:104EF000843169F72D9A88EC90E00E944D092E9834
:104F00001A83098360E0CE0101960E94582384EF42
:104F100091E00E944D092E9A0E944D0884718431BF
:104F2000D9F3D5CF2D9A82E090E00E940C2C8823F3
:104F300009F47AC03E9A3F9A81E090E00E940C2CDE
:104F4000182F81E090E00E940C2C81FF0EC0412FB1
:104F50004470F42E12FD2E9800EF1FEF0E944D08B2
:104F600086FF65C02E9A2F9A2D9A82E390E00E94C8
:104F70004D090E944D088111F8CF83E08093BB0456
:104F800080E19CE1A0E0B0E08093A8049093A904A4
:104F9000A093AA04B093AB0480E190E00E940C2C93
:104FA000182F81E190E00E940C2C982F91239F3FB5
:104FB00009F465C0912F9093820480938104AE011F
:104FC0004F5F5F4F9E012B5E3F4FCE0140966AE0E0
:104FD000462E512C612C712C142FF52E2CA3C32E90
:104FE000D82EE92E80E1282E312C8FB7F8944091ED
:104FF0007704509178046091790470917A048FBF9E
:105000008091BC04942F981B892F9091BD04992303
:10501000C9F18093BE041092BD0480E090E0892B1A
:1050200021F30E940000DECF3E983F9885CFFF20FD
:1050300029F00430110511F42E9A2F9881E00E9476
:10504000F20BC8010E949E0680E00E94F20B8FE0E6
:1050500090E00E944D090F5F1F4F0931110509F0C3
:105060007DCFFF2011F02F9A2D9880E991E00E94CA
:105070004D092D9A80EB94E00E94500C76CF90E081
:1050800080E099CF9091BB04891740F48F5F891716
:1050900020F681E083BF889513BEBFCF81E0809367
:1050A000BD044093BC048091B7049091B80401966C
:1050B0009093B8048093B7040E94D4086C8F7D8FBE
:1050C0008E8F9F8F8091AC049091AD04AC8DBD8D7F
:1050D000A81BB90B2091A8043091A904A217B3070B
:1050E00058F30E94D4086093AC047093AD0480938D
:1050F000AE049093AF040091A70401111FC080E09B
:105100000E94F20B802FE7ECF4E081118FEF002476
:1051100081938193819381930394D1F71092C20478
:105120001092C1041092C0041092BF048091B9047F
:105130008093BA040E944D088093B9048091A6041C
:10514000813009F43EC2823009F4C3C181114FC1DC
:10515000011157C180909E0490909F04A090A004DC
:10516000B090A104B3E38B169104A104B10408F438
:1051700058C0D501C401B695A795979587959C0110
:10518000AD0121703327442755272C8F3D8F4E8F3B
:105190005F8F00917E04D501C40162E0B695A795AA
:1051A000979587956A95D1F781709927AA27BB278C
:1051B000281B390B4A0B5B0BA02FB0E00E94222C5E
:1051C00068A379A38AA39BA3DC01CB01B695A7951D
:1051D00097958795FC01789631E083229924AA243B
:1051E000BB24A50194018C8D9D8DAE8DBF8D281B98
:1051F000390B4A0B5B0BA02FB0E00E94222C6C8F66
:105200007D8F8E8F9F8FDC01CB01B695A7959795EB
:1052100087958E9602E12AE14FED56E0BF010E948C
:105220002C0B8091A7048111E2C00E944D0883FFDE
:1052300085C001E00093A604A0EBA093A804B2E10E
:10524000B093A9041092AA041092AB0410929E0489
:1052500010929F041092A0041092A1041092800456
:1052600010927F0462E070E0812F9F2D0E94F10C6C
:1052700020E431E030937D0420937C040E94F60CFE
:1052800080937B0465E070E08CA19C2D0E94F10C62
:1052900062E070E0812F9F2D0E94F10C40E55DEFF0
:1052A0005F8B4E8B398E288E1D8A65E070E08D2DC8
:1052B0009E2D0E94F10C62E070E0812F9F2D0E94D4
:1052C000F10C80EC9EEF9A8B898B84E190E09C8BB3
:1052D0008B8B188A65E070E0CE010B960E94F10C72
:1052E00062E070E0812F9F2D0E94F10C1D861C86CC
:1052F0008EE190E09F878E871B8665E070E0CE018F
:1053000006960E94F10C62E070E0812F9F2D0E94B2
:10531000F10C80E892E098878F8382E390E09A878F
:1053200089870E8365E070E0812F9F2D0E94F10C2C
:1053300062E070E0CE014A960E94F10C0E944D0896
:1053400087FF14C04091A8045091A9046091AA0459
:105350007091AB04465F5F4F6F4F7F4F4093A8043F
:105360005093A9046093AA047093AB0484FF14C003
:105370004091A8045091A9046091AA047091AB04D3
:105380004A505109610971094093A8045093A90436
:105390006093AA047093AB0485FF14C04091A804E5
:1053A0005091A9046091AA047091AB044150510935
:1053B000610971094093A8045093A9046093AA0459
:1053C0007093AB0486FF13C08091A8049091A90448
:1053D000A091AA04B091AB040196A11DB11D8093C8
:1053E000A8049093A904A093AA04B093AB0480915D
:1053F000A70491E0980F823009F4E6C09093A704C7
:105400000CCE013009F00CC180909E0490909F0456
:10541000A090A004B090A1049BE089169104A1047F
:10542000B10408F4FECED501C401B695A7959795B1
:1054300087959C01AD0121703327442755272C8F78
:105440003D8F4E8F5F8F00917E04D501C40162E0D5
:10545000B695A795979587956A95D1F78170992705
:10546000AA27BB27281B390B4A0B5B0BA02FB0E0E8
:105470000E94222C68A379A38AA39BA3DC01CB0101
:10548000B695A79597958795FC01789631E083228C
:105490009924AA24BB24A50194018C8D9D8DAE8DE9
:1054A000BF8D281B390B4A0B5B0BA02FB0E00E946D
:1054B000222C6C8F7D8F8E8F9F8FDC01CB01B69558
:1054C000A79597958795069603E125E240E756E074
:1054D000A5CE2091A4043091A5048091A2049091BE
:1054E000A3042817390709F06CC010929E0410928B
:1054F0009F041092A0041092A1041092A60450E1FF
:105500005093A8048CE18093A9041092AA041092ED
:10551000AB0410929D0410929C0410929B04109274
:105520009A04109299041092980410929704109281
:105530009604109295041092940410929304109281
:105540009204109291041092900410928F0464E0DF
:1055500070E08BE894E00E94F10C64E070E087E872
:1055600094E00E94F10C64E070E083E894E00E9413
:10557000F10C1092A5041092A4041092A3041092AE
:10558000A20480917F049091800420918104309145
:10559000820428173907A8F4909382048093810429
:1055A0003A822982692F812F9F2D0E945823609172
:1055B0007F04A1E1B0E0BA83A983812F9F2D0E94CF
:1055C00058230E94FA0E13CF1092A7048091A604CC
:1055D000823009F422CD80919E0490919F04A09185
:1055E000A004B091A1040196A11DB11D80939E0459
:1055F00090939F04A093A004B093A10480917F0492
:105600009091800401969093800480937F04809110
:105610007E04882309F401CD815080937E04FDCC63
:10562000023009F0FECD80909E0490909F04A090DF
:10563000A004B090A1049BE589169104A104B104D3
:1056400008F4EFCDD501C401B695A7959795879538
:105650009C01AD0121703327442755272C8F3D8FA6
:105660004E8F5F8F00917E04D501C40162E0B69534
:10567000A795979587956A95D1F781709927AA275D
:10568000BB27281B390B4A0B5B0BA02FB0E00E94F5
:10569000222C68A379A38AA39BA3DC01CB01B69536
:1056A000A79597958795FC017896A501940121709F
:1056B0003327442755278C8D9D8DAE8DBF8D281B9C
:1056C000390B4A0B5B0BA02FB0E00E94222C6C8F91
:1056D0007D8F8E8F9F8FDC01CB01B695A795979517
:1056E0008795855B9F4F01E122E34AED55E0BF01BD
:1056F0000E942C0B95E689169104A104B10408F4CC
:1057000090CDC501B401A30192010E942D2CCA01C4
:10571000B901A30192010E942D2C6C8F7D8F8E8F79
:105720009F8F663071058105910508F47ACD30921E
:10573000C0042092BF0480E390E09093C204809361
:10574000C1048EE391E00E94910C6BCDE0EBF4E09C
:10575000138212821186128680E183871086178257
:10576000158680E191E0918380838EE191E09583BD
:105770008483108A1786128A118A81E0838B148AA7
:10578000858B168AE0E5F1E01382128288EE93E0C1
:10579000A0E0B0E084839583A683B78384E291E0A0
:1057A000918380838FEF9FEF958784870895AA1B4D
:1057B000BB1B51E107C0AA1FBB1FA617B70710F0FC
:1057C000A61BB70B881F991F5A95A9F7809590952E
:1057D000BC01CD01089597FB072E16F4009407D065
:1057E00077FD09D00E94D72B07FC05D03EF4909599
:1057F00081959F4F0895709561957F4F0895EE0FA5
:10580000FF1F0590F491E02D0994DC0101C06D9318
:1058100041505040E0F70895F999FECF92BD81BD07
:10582000F89A992780B50895262FF999FECF1FBAC7
:1058300092BD81BD20BD0FB6F894FA9AF99A0FBEB9
:10584000019608950E944F2CA59F900DB49F900D36
:10585000A49F800D911D11240895A1E21A2EAA1B68
:10586000BB1BFD010DC0AA1FBB1FEE1FFF1FA21710
:10587000B307E407F50720F0A21BB30BE40BF50B0D
:10588000661F771F881F991F1A9469F76095709596
:10589000809590959B01AC01BD01CF010895A29F19
:1058A000B001B39FC001A39F700D811D1124911DF4
:1058B000B29F700D811D1124911D0895F894FFCFA2
:1058C000FFFFFFFF00E100000000000000000000FB
:1058D00051079F099A069D06500CFCFF00008E0C94
:1058E000000000008909590A550A7E096409210B44
:1058F000110B00C18081000000205B005D00507230
:10590000657373204120746F20737461727400009A
:00000001FF
